:020000022000DC
:1060000000000120756302005D6302005F6302000F
:106010006163020063630200656302000000000028
:1060200000000000000000000000000067630200A4
:1060300069630200000000006B6302006D630200F0
:10604000ED9902006F630200C19E0200D9AB02000D
:1060500055AD02006F630200759D02006F63020080
:106060006F630200CDB20200E1B202006F63020072
:106070006F6302006F6302006F6302006F630200D0
:106080006F630200F57402006F6302006F63020029
:106090006F6302006F6302006D2103006F630200F3
:1060A0006F6302006F630200F5B202006F630200CB
:1060B000D9AA02006F630200000000000000000087
:1060C0006F6302006F6302006F6302006F63020080
:1060D0006F6302006F6302006F6302000000000044
:1060E00000000000000000000000000000000000B0
:1060F00000000000000000000000000000000000A0
:10610000000000000000000000000000000000008F
:10611000000000000000000000000000000000007F
:10612000000000000000000000000000000000006F
:10613000000000000000000000000000000000005F
:10614000000000000000000000000000000000004F
:10615000000000000000000000000000000000003F
:10616000000000000000000000000000000000002F
:10617000000000000000000000000000000000001F
:10618000000000000000000000000000000000000F
:1061900000000000000000000000000000000000FF
:1061A00000000000000000000000000000000000EF
:1061B00000000000000000000000000000000000DF
:1061C00000000000000000000000000000000000CF
:1061D00000000000000000000000000000000000BF
:1061E00000000000000000000000000000000000AF
:1061F000000000000000000000000000000000009F
:10620000354936480A1A02D0072291438D4634494F
:1062100034480A1A06D00722914381F309880222E2
:1062200082F3148830483149314A00F044F831484B
:106230003149324A00F03FF831483249324A00F0E1
:106240003AF832483249334A00F035F83248334997
:10625000334A00F030F833483349344A00F02BF821
:1062600033483449344A00F026F83448344900228F
:1062700000F02CF833483449002200F027F8334866
:106280003349091A082902DB002202604160314AC1
:1062900090471F481F49884205D00268043003B464
:1062A000904703BCF7E700208646EC46002000211B
:1062B000294A9047FEE7884207D0521A05D0037852
:1062C00001300B700131013AF9D17047884202D098
:1062D00002700130FAE770470000012000E0002062
:1062E00000000120000001206461030098220020CA
:1062F000B4240020D0630200D0630200302F0300DA
:106300006461030098220020982200205C31030081
:106310005C3103005C3103005C3103005C3103003D
:106320005C3103005C3103005C31030064610300F5
:1063300080630300B4240020B4240020B42400208F
:10634000D04A0020D04A0020D04A0020D04A002065
:10635000D06A00209D63020089D10200FEE7FEE7BB
:10636000FEE7FEE7FEE7FEE7FEE7FEE7FEE7FEE705
:1063700000F002B8FFF7FCBF0F484FF00701884359
:1063800085460E4880470E48016841F4700101605F
:10639000BFF34F8FBFF36F8FFFF732BF09480A4932
:1063A0000A4A884207D0521A05D0037801300B7090
:1063B0000131013AF9D1704700000120BD9402007B
:1063C00088ED00E034310300702200209822002084
:1063D000F0B595B01D46164608460C4602F070FF13
:1063E0001A9B0D93CDE9086500252B46082205A9C7
:1063F00020460A958DF82C500C9502F07DFF079BE6
:106400000293069B03939DF814308DF8115003F00E
:106410000302012A1DD1BDF81420059DC3F3C20358
:10642000C2F383168DF81030B20008230EA920465F
:1064300002F062FFC5F3952508AB0093324602AB2C
:106440000EA9284600F0C8FB204602F03DFF15B01B
:10645000F0BD022AF8D1BDF81650C3F3C203C5F34C
:1064600089158DF810300827082D2E4628BF0826DC
:106470003B4632460EA9204602F03EFFAD1B08AB5C
:1064800002AA31460EA8374400F00AFC002DEBD1D9
:10649000DAE70000014B01221A707047F524002052
:1064A0007047000070B50E4D06460FCD88B06C46A3
:1064B0000FC495E80F00002E84E80F00094A0A482F
:1064C0004FF0060308BF00226946009303F016FA56
:1064D00008B100F045FC054B1E7008B070BD00BF50
:1064E0005C3103009564020098220020B42400204F
:1064F00007B5044B0093044A4023FFF769FF03B03C
:106500005DF804FB0D650200B524002038B50D4888
:106510000D4C0E4D002323700378EB5CD2B263B1B7
:10652000043004F05BF908B100F01AFC084B1A784B
:1065300012B12378002BFBD038BD0C3003F0FCFEE9
:10654000F1E700BF98220020F5240020282D00202C
:10655000B424002008B50848084A0378D35C3BB14E
:10656000043004F09FF8BDE808400020FFF79ABF10
:106570000C3003F06BFEF6E798220020282D002057
:106580000120FFF78FBF000008B5FFF7F9FF0448AF
:10659000042100F08BFA034B01225A7108BD00BFA1
:1065A00024310300AC220020037813F0040216D03B
:1065B00003F00303012B03D0022B09D00120704705
:1065C0000A6800880232C0F3831002440A60F5E7CB
:1065D0000B684288023303EB92130B60EEE7104620
:1065E000704700002DE9F04FDFF81CA187B00F467F
:1065F00000230446861C0DF1070015468DF8073070
:1066000000F00AFEDAF804203A60DAF8083003F500
:1066100080739B1A0AF21C470AF583690AF2144830
:10662000B3421AD30020002D69D004F00F039B0160
:1066300043F0050363F30F00DAF80430DAB20332F3
:1066400033444AF822009DF80700CAF8043000F0ED
:1066500007FE012007B0BDE8F08F0121384602F0A7
:1066600005F8484602F01DF8404602F01AF8DAF83C
:1066700008000290C0B203300AEB800002A9FFF7C5
:1066800093FF029B30BBDAB20AEB8202D16803911E
:106690009A1C0133DBB20AEB83030292D3F80CB0ED
:1066A00001F00303012B22D0022B15D08346404674
:1066B00001F0FAFF10B1029BCAF80830594638467B
:1066C00001F0D4FFDAF80830DAF8042003F580731B
:1066D0009B1AA5E7D8B2CEE7BDF80E30C3F38913F5
:1066E00003334FEA1B4B02EB93030293DFE7BDF842
:1066F0000C30C3F383134FEA1B4B1344F5E7A40597
:1067000044F0060098E700BFC8250020064B074864
:1067100010B500221A7002F08CFD044610B904482E
:1067200002F034FE204610BDC825002010300300C2
:10673000B031030030B50A4C71B10A4A0A49121B44
:10674000D20800239A4201D1002030BD31F82350F5
:10675000854202D00133F5E7034654F83300F4E7ED
:10676000243003002431030098220020094B013912
:1067700003EBC000032909D8DFE801F00A02040690
:1067800004207047007970474079704700207047B7
:10679000022070472430030070470000034BD3E908
:1067A0000130C31A58425841704700BFC825002025
:1067B0002DE9F04186B0FFF7F1FF0546002840F0D3
:1067C000ED80774CC4F81804BFF34F8FA368029391
:1067D000DBB2033304EB830002A9FFF7E5FE029B63
:1067E00018B1D4F81824002A5AD0DAB2991C01330F
:1067F00004EB8202DBB204EB8303D268DB68049310
:1068000002F00303022B0392029154D1BDF80E3023
:106810006448C3F38917502F3E4628BF502606F11F
:10682000080166F38F13C1F30901ADF80E3002F0D1
:1068300018FD0546002800F09C8002F041FD002371
:10684000082203A9284602F04DFD0299CB43DBB292
:106850000133C9B20331B6EB830F4FEA830204EB75
:10686000810125D95FFA82F80823A6EB080628469D
:1068700002F038FDF6B208F108034B4903F0FC03BF
:106880003246284602F02EFD029B033703EB9707A2
:106890000297D4F81834002B43D1D4F8106453E095
:1068A00062689A4294D8A260284606B0BDE8F0819A
:1068B00008233246E5E7012B5BD1BDF80C3039489F
:1068C000C3F38311062928BF062161F3891302311E
:1068D00001F00F018900ADF80C3002F0C2FC054652
:1068E000002846D002F0ECFC0023082203A9284629
:1068F00002F0F8FC0026BDF80C20C2F38312B300AE
:10690000964203F10803C4D202994A1CC9B203316A
:10691000029204EB81010422284602F0E3FC0136D6
:10692000E9E7284602F0D0FCFFF738FF80F00100CD
:10693000C5B2B9E7F3685B7923B1336829461B68B0
:1069400030469847F3681E68002EF3D1284602F0BF
:10695000BBFC0DF107008DF8076000F05DFCD4F87A
:1069600018340BB9029BA3609DF8070000F078FC77
:10697000DAE7D4F8104454B90C4B0D480D49C01A4D
:10698000C008000440F0020000F05EF8CCE7236885
:1069900020469B689847E3681C68ECE7002583E77E
:1069A000C825002010300300D42500202430030027
:1069B0006C300300993103002DE9F34704460E467D
:1069C000924601A9012218469946FFF70BFE1C4F7B
:1069D00010B3019D4FF00008AA1CC84508EB020146
:1069E00025D11848002101F0FAFD80F310000004C1
:1069F00040EA1440E4006B1C04F03804DBB2EDB252
:106A000044F0010407EB8303033544EA881444EAA5
:106A10008624D86047F825403B781BB1FFF7C8FEB5
:106A20000028FBD1FFF7B8FE02B0BDE8F087C9B27D
:106A300007EB81015AF82830CB6008F10108CCE758
:106A4000C8250020E429002000231A46FFF7B4BF20
:106A500007B50123019201AAFFF7AEFF03B05DF86D
:106A600004FB07B5CDE9002302236A46FFF7A4FF24
:106A700003B05DF804FB1FB5CDE90123069B03932A
:106A800001AA0323FFF798FF05B05DF804FB1FB5CB
:106A9000CDE90023069B0293079B03936A460423D8
:106AA000FFF78AFF05B05DF804FB000030B50F4C1E
:106AB000D4F8102403460020114631B9D968087172
:106AC0004AB9C4F810340A6030BDC9680D798542EE
:106AD00006D00968F1E7D26814680C601360F3E728
:106AE00001300A28E8D14FF0FF30EDE7C82500203B
:106AF00038B5084B0125D3F810441D7004B938BDD2
:106B0000E3685D71236820465B689847E3681C680A
:106B1000F4E700BFC825002030B5C38885B004461F
:106B20000D4633B1144A00921449154A284601F023
:106B30001EFE217A05291DD0637A4BB1A088FFF78C
:106B400015FE104B104953F82020284601F00FFE87
:106B5000227A0E4BA08853F8222003920021FFF7DF
:106B6000E9FD039A0A490346284605B0BDE83040CE
:106B700001F0FDBD05B030BDDC310300C4310300C0
:106B8000BC310300483203003B5403006C32030065
:106B9000E131030007B503460846197A052911D0EB
:106BA0005B7A2BB1094A0A49019001F0E0FD019896
:106BB0000849019001F0DBFD019803B05DF804EB9A
:106BC00001F0CABD002AF8D0F2E700BFDC310300B3
:106BD0003B5403000E4203002DE9F04385B01F46ED
:106BE0000C9D002395F80C902B7306460C4690469E
:106BF00029463846FFF790FFB8F1060F09D8DFE8BD
:106C000008F00412181F283340003146284601F0CE
:106C1000AEFD002229463846FFF7BCFF85F80C90F0
:106C200005B0BDE8F08322683146284601F09FFD9B
:106C3000EFE7D4E900233146284601F098FDE8E764
:106C4000A36800933146D4E90023284601F08FFD64
:106C5000DFE7E3680193A36800933146D4E900239A
:106C6000284601F084FDD4E723690293E368019389
:106C7000A36800933146D4E90023284601F077FD4C
:106C8000C7E76369039323690293E3680193A368E9
:106C900000933146D4E90023284601F068FDB8E7A7
:106CA00008292DE9F74F80460E4617461C463DD869
:106CB00000251B7B2573214610460193FFF72CFF0F
:106CC000DFF88CA0DFF88CB0AE4232D918F805207E
:106CD0005946204601F04BFD0135082DF4D11B49E2
:106CE000DFF874A0DFF874B0204601F040FD4FF0EB
:106CF00000094E4524D918F809507E2D1ED8284683
:106D00000BF020FD002814BF2A462E2259462046AB
:106D100001F02DFD09F10109B9F1080FE9D10122B6
:106D200021463846FFF736FF019B237303B0BDE8C9
:106D3000F08F5146204601F01AFDCDE72E22E5E7FF
:106D40005146204601F013FDE4E700BFF531030092
:106D5000F1310300EB310300D2410300F7310300AE
:106D60001FB50021039001AA44F20100CDE90111F1
:106D700000F004F805B05DF804FB000038B572B609
:106D8000FFF7B6FEFFF714FD0028FBD1104B114CA6
:106D9000114D1249E41AE408240444F00100FFF7FD
:106DA00053FED5F8F030DB0700D500BE0C4944F0A7
:106DB0000200FFF749FEBFF34F8FEA68094B02F468
:106DC000E0621343EB60BFF34F8F00BFFDE700BFEE
:106DD000243003006C30030000ED00E08B32030030
:106DE000973203000400FA0510B5D0E90243D1E957
:106DF0000202A04272EB03032CBF0120002010BD51
:106E000008B50A4800F05FFB094AD2E90031C01812
:106E1000084BD3E9002341F10001904271EB0303D9
:106E200003D210F1807041F1000108BDB4220020AE
:106E3000882A0020002B002037B505460C460A485A
:106E400001A901F000FB60B10570446001A906488A
:106E500001F023FB18B1054800F03AFB002003B015
:106E600030BD0420FBE700BFEC2A0020B422002044
:106E7000294B73B51E7804461EB90026304602B071
:106E800070BD0028F9D0FFF7BBFFD4E90223904280
:106E9000994139D300230DF107008DF8073000F038
:106EA000BBF923692BB94FF0FF324FF0FF33C4E930
:106EB00002239DF8070000F0D3F9D4E90530984784
:106EC00000250DF107008DF8075000F0A5F92369A2
:106ED000C3B1D4E90212B2F1FF3F08BFB1F1FF3FE5
:106EE00005D05B1842F10002C4E9023235469DF834
:106EF000070000F0B5F9002DBFD00848214602F088
:106F000064FABBE71D46F2E7B3F1FF3F08BFB2F1F9
:106F1000FF3FB2D0F1E700BF902A0020B432030057
:106F200013B5114B114918680190082310485822D5
:106F300001F054FA044698B90E4A0F4801A900F02E
:106F4000B3F9044660B90C48012100F09FFA01230F
:106F50000A4A0948194600F001FA094B01221A7041
:106F6000204602B010BD00BFAE320300942A0020BC
:106F7000EC2A002061700200B4220020FFFF7F0095
:106F8000902A002030B56AB103684FF0FF344FF00B
:106F9000FF355A614A1E5142C3E902455141196108
:106FA000002030BD0720FCE7F7B5044600250DF1B1
:106FB000070017460E468DF8075000F02DF9D4E96A
:106FC0000223B3F1FF3F08BFB2F1FF3F07D1FFF744
:106FD00017FF301841F10001C4E9020101259DF8B5
:106FE000070000F03DF955B12369A76103B126619F
:106FF0002146002003B0BDE8F040FFF71DBF284642
:1070000003B0F0BD37B5054600240DF107008DF83B
:10701000074000F001F9D5E90223B3F1FF3F08BFB3
:10702000B2F1FF3F1FBF4FF0FF324FF0FF33C5E912
:10703000022301249DF8070000F012F934B129461B
:10704000012003B0BDE83040FFF7F6BE204603B094
:1070500030BD0000014800F036BA00BFB422002065
:107060002DE9F743064600F019FA40B1624AD2E929
:10707000003113F1807341F10001C2E900310021B8
:10708000304600F01AFA38B15C4C236823B120680E
:10709000FFF7EEFE002323600121304600F00DFAD9
:1070A00020B1FFF7ADFE564BC3E900015548534CE4
:1070B00001A901F002FA4FF0FF384FF0FF39A0B9F3
:1070C000DFF844814D4D404602F095F9002800F06C
:1070D0008580D0E90223B3F1FF3F08BFB2F1FF3F43
:1070E00032D1404602F081F9EDE70378012B20D040
:1070F000022B08D1444D284602F077F9002877D0BA
:10710000C0E90289F7E75BB94168D1E90223B3F12D
:10711000FF3F08BFB2F1FF3F02D03B4802F055F9F4
:1071200001A9384801F0F4F901A9364801F0C5F980
:10713000C5E741682368994202D100232360EFE745
:10714000314802F05BF9EBE7296891B12968D1E990
:10715000020182428B412FD22B68D3E90223B3F183
:10716000FF3F08BFB2F1FF3F03D02968404602F05D
:107170002CF9404602F039F9D0E902490746FFF7F9
:107180003FFE201A69EB0109012879F1000318DBA1
:10719000B0F5350F13D3FFF75DFF1C4A02441C48BE
:1071A0004FF49603002100F0F9F890B92B6813B959
:1071B000304600F0CBF82F6003B0BDE8F0832246E4
:1071C000EDE71348002100F06EF93846FFF750FE56
:1071D00001E00D28F9D000232B6074E7074B1B68F2
:1071E000002BE9D1304603B0BDE8F04300F0B2B85F
:1071F000084B01221A7093E7882A0020082B0020F0
:10720000002B0020EC2A0020B4320300FFFFB40062
:10721000B4220020902A002070B5EFF3108672B6D9
:107220000C4A946801239CB993600B4B0B4DD3F827
:10723000801029401160C3F88050D3F88410516049
:107240004FF0FF32C3F88420047006B962B670BDF7
:107250000370FAE70C2B002000E100E0FC06FFBD04
:10726000084B9A6810B55AB150B9EFF3108172B655
:10727000054A1C6814605C685460986001B962B685
:1072800010BD00BF0C2B002000E100E0435882B08D
:107290003BB10023435043580193019B012002B0AE
:1072A00070471846FBE70000F8B5204B4479204EA4
:1072B00043F824201F4A204B06EBC4049B1A227972
:1072C000DB081B0432B143F002001C49FFF7BCFB92
:1072D0000820F8BD02680C88C2F8084590F90450EF
:1072E0008A7804795201002DD2B219DB14494F1962
:1072F00087F8002301226D0904F01F0402FA04F448
:1073000041F82540427906EBC201012446F83200DB
:107310000C7143F003000B49FFF796FB0020D8E700
:10732000094904F00F040A55ECE700BF202B0020A8
:10733000182B0020243003007C300300C0320300EF
:1073400000E100E0E232030014ED00E003680122F6
:107350001A607047036801225A60704773B501F1E3
:107360005005AD000068ADB24FF480348C4000266B
:10737000C0F80843C0F84843465101F5A871455983
:10738000019522F07F42019D40F82120C0F844433E
:107390000BB1C0F8044302B070BD00002DE9F74FF7
:1073A0000D4622F07F4402684FF4803705F1500605
:1073B0008F408046B60002EB8500C2F84873B6B233
:1073C000C2F80873D2F8041599464FF0000BD0F8B4
:1073D0004035C0F8401542F806B05B1A9259009249
:1073E00023F07F43012B009A4FEA850A0CD1264BEC
:1073F0004FF4806043F001039847D8F8003043F819
:1074000006B09B590193019BD8F80010D1F8046590
:10741000C1F84473A31B23F07F43012B1CD11A4BEB
:1074200005F5A875013443F0010341F825404FF4F8
:1074300080609847D8F80030D3F804359E4209D1CF
:10744000D8F800300020C3F84473C3F8047303B0C5
:10745000BDE8F08F0D20FAE78A44C9F1FF13CAF89E
:107460004045D1F80405221A013A22F07F4203F583
:107470007F439342EED3002AE2D10134CAF840455B
:10748000D1F804359842DAE700330300036802229A
:10749000C3F8442309B1C3F80423704700684FF4CC
:1074A0008271FFF7F3BE4FF4803303FA01F10368F2
:1074B000C3F84813C3F808137047503189000068B7
:1074C00089B2FFF7E3BE0368D3F8040570470000F4
:1074D00090F90430002B09DB5A09012103F01F0346
:1074E00001FA03F34032024941F82230704700BFED
:1074F00000E100E0024B034A1B681068184700BF18
:10750000202B0020182B002070B5064D06460024C5
:1075100055F8043B0BB1304698470134042CF7D1A1
:1075200070BD00BF302B00204388033300EB830382
:1075300099420BD382884FF6FF739A4208D0038892
:1075400033B18068431C584258417047022070474D
:1075500001207047033080B240F2FE33984230B5CC
:107560001FD8134B1A783AB91C895D892C440444FE
:10757000A4B2B4F5806F0AD91A7DAAB99A8BDC8BB4
:107580002244024492B2B2F5806F0DD801220A80E3
:107590001446142202FB04335A89104458810020F7
:1075A00030BD48F20860FBE748F20660F8E700BF2C
:1075B000642B00200B4A0C495388142000FB031154
:1075C000CB6833B90420496810700122074801F0E4
:1075D000D5BB07490523137002238B80012209685C
:1075E0000023F3E7482B0020642B002070220020AA
:1075F0002C2C002007B5002305490093054A096893
:107600000548082301F020FB03B05DF804FB00BF30
:107610002C2C0020143303007022002007B5002317
:1076200001460093034A0448082301F00DFB03B010
:107630005DF804FB0C3303007022002013B5002317
:107640000C4600930146084A0848042301F0FCFA5E
:1076500038B9074B142101FB043101230B7402B02C
:1076600010BD48F20D60FAE70833030070220020D5
:10767000642B002037B50A480A4B42689C88196879
:1076800053880325033305709BB2002000909B00B4
:1076900001EB8401044801F0D7FA03B030BD00BF0C
:1076A000482B00202C2C00207022002010B5014611
:1076B000044800F0C8FE1C22044600210BF0D7F855
:1076C000204610BD182C002068B10268084B9A4271
:1076D00009D14068074B984207D00133984214BF44
:1076E000032001207047032070470020704700BF2F
:1076F000DEC0ADDEFE011EF12DE9F0410D46022394
:10770000154F2B80164600F5805100F108044FF00C
:1077100001088C420ED2236801330BD02046FFF7BC
:1077200003FF48B10EB186F80080022809D14FF45A
:1077300080632B80BDE8F081A3683A68934200D94A
:107740003B602B886288033313442B8063880333A8
:1077500004EB8304DDE700BF5C2B002038B5144B3D
:1077600014220D4602FB00302B68446804F580515A
:10777000A3B15C88033403EB84048C4215D22368E4
:10778000013312D02046FFF7CFFE012808D002288F
:107790000BD00028F1D12C60012038BD0834ECE773
:1077A0006388033304EB8304E7E70020F5E700BFB9
:1077B000642B0020426873B504460D466AB3234B20
:1077C000D9688A4229D31B699A4226D812F003034A
:1077D00023D11F490089098988421ED120689168F8
:1077E00088421AD11B4841688A4203D901F5805169
:1077F0008A420DD381698A420CD901F580518A42AF
:1078000008D201222A80B3FA83F0400902B070BD89
:107810001A46F7E748F20963F5E700262E8001963D
:10782000288801A9FFF79AFF30B92B8801339BB252
:10783000012B2B80F3D9E9E7019B226899689142DB
:10784000EED16360024B1B892381DFE770220020A9
:10785000482B0020642B00202DE9F8431C461D4BCB
:107860001B7806460F46154673B382B37CB3DFF828
:107870006C804FF01409A388012B02D948F20960EB
:1078800020E009FB03F318F803302BB9A088214648
:10789000FFF764FF20B92060A3880133A380EAE7E3
:1078A00023681EB1998832889142EFD11FB119889F
:1078B0003A889142EAD19A68C5E90023064B1B89B0
:1078C0002B810020BDE8F88348F20160FAE748F216
:1078D0000460F7E7402B0020482B0020642B002099
:1078E00008B5074B5888191DFFF738FF18B1BDE8D8
:1078F0000840FFF7BFBEBDE80840FFF75BBE00BF12
:10790000482B00202DE9F0479F4FDFF8A08288B078
:1079100006463B6823B99D48414600F0CEFD3860DD
:107920003D6829784B1E052B07D8DFE813F02000AF
:1079300074007400060106015D0148F20E64142211
:10794000002103A80AF093FF41F61D539C4208BF93
:1079500000243B6804941A78023A042A00F2FC815D
:10796000DFE812F0DD01E9010B0213021A022EB169
:10797000874B00225A604FF40644E0E72B79032B33
:107980001CD8DFE803F014022A35824A1378022B50
:107990001AD0137D022B4FF0010317D114214B4352
:1079A000D1180020D0544868FFF738FE03E00123C7
:1079B0002B71FFF71FFE002800F0B980744B0022E6
:1079C0005A6048F20D64BAE70023E7E7704A137083
:1079D0000023536041F61D54B1E76F496F480023FF
:1079E00002222B718A800968012201F0C7F9E2E7BF
:1079F0006B4B684C5B88684A14214B43E1180026A6
:107A00002E714D6810681560958848600D810221BF
:107A1000E6549180C8E7B5F814A0AA7DDFF8749108
:107A2000AEB1022AEB8806D9142101FB0A91DA1CB7
:107A3000088902440A81142202FB0A99C3F57F4394
:107A4000B9F80A20FD331344A9F80A3093E7142348
:107A500003FB0A9318895C6804EB8004062A69D842
:107A6000DFE802F0274E36441D5A040041F61D544B
:107A7000AA7DEB88022A06D9142101FB0A91DA1C9F
:107A8000088902440A81142202FB0A99C3F57F4344
:107A9000B9F80A20FD331344A9F80A304FE74148EA
:107AA000414900234360AB690360FFF783FE002870
:107AB0005BD00223AB75002300930423EA18214610
:107AC000364801F0C1F8002831D048F20D64CFE704
:107AD0002B69002B14BF03230123AB7500230093F4
:107AE00005F10C02042304F10801E9E70123AB7559
:107AF0000022EB8800922A699B0004F10C01DFE769
:107B000003290CBF05230623AB7500230093042330
:107B100005F10802E118D3E70623AB75224B19885B
:107B2000204B5868FFF78AFD04460028A0D108B012
:107B3000BDE8F08748F20E649AE7002E7FF41BAF91
:107B40002B79012B34D0022B3FF444AF002B7FF470
:107B5000F4AE02232B710DF10A01EB68039303A825
:107B6000CDE90466FFF726FE10B948F20964E6E69F
:107B70000498BDF80A108388EB8003882B81FFF7F7
:107B80005DFD044629E000BF602B0020182C00207A
:107B9000402B0020642B00202C2C00207022002081
:107BA000482B0020242B0020382C0020582B0020AC
:107BB000DFF8009203AA4B463146A81DFFF74CFEA2
:107BC000044670B9B9F804100498FFF737FD04466D
:107BD00048F209639C423FF4FDAE002C7FF4AFAE47
:107BE000A5E7C9E90066F3E7002E7FF4C4AE6C4B4D
:107BF0001A7BBAB11E731A78013A062A3FF69DAE77
:107C000001A151F822F000BFB37C0200D97C020030
:107C1000F77C0200FD7C02003B790200037D02003C
:107C2000157D02001A78072AE5D801A151F822F043
:107C3000517C0200F77B0200F77B0200777C020098
:107C40008B7C0200AF7C0200AF7C0200737C0200E0
:107C50001A89544901321A8100225A801A730A780B
:107C6000B2FA82F252099A720A7DB2FA82F252098B
:107C7000DA72012207E04C4958688A88408803324A
:107C800002448A8002221A70B5E75C88454A464958
:107C9000142505FB04220868546850608888108108
:107CA00002200C608880002111740622EBE7072275
:107CB000E9E79A7A32B9DA7A8AB900221A705A80D8
:107CC0005A6087E6374900229A72CA68002AF2D1C0
:107CD000097C0029EFD05A80FFF702FE51E700220D
:107CE000DA72304A116A0029E7D192F82420002A7A
:107CF000E3D00122EFE7FFF7BDFC42E7FFF75AFCB4
:107D00003FE75A88274B142101FB02335868FFF7DD
:107D100085FC36E700225A60FFF76CFC31E7012250
:107D20008DF80C201A89ADF818209A88DB68ADF818
:107D30001A20059310E002228DF80C201A89ADF864
:107D400018209A88ADF81A20DA689B7D05929A1F50
:107D5000534253418DF81C3003A8FFF7D5FB002692
:107D6000414612483E6000F0D3FB1148012100F06B
:107D700089FC00287FF4CDADD9E603228DF80C20D4
:107D8000DA88ADF818201A89D0E704228DF80C2083
:107D9000DB88ADF81830DFE705238DF80C30DBE722
:107DA000482B0020642B00202C2C0020182C0020B5
:107DB000282C00203C2C00204068FFF7A3BD0000C9
:107DC00008B50548012100F045FC18B9BDE8084098
:107DD000FFF798BD08BD00BF282C00202DE9F34116
:107DE0009846374B1B7806460D46002B5CD0002981
:107DF0005DD009884FF6FF7399425BD06B88002BEA
:107E000058D06B689B0758D14AB92F890DF10201F0
:107E10003846FFF79FFB30B102B0BDE8F081138810
:107E20005788ADF8023001A8FFF740FC044660B95E
:107E3000BDF80220234B142101FB0233588903387B
:107E4000C01B588148F20760E6E780F800800023F5
:107E50008375BDF8023083826B68036101211A4883
:107E600000F004FC2B882381B8F1030F6B88A380FA
:107E700004BF0423A3754FF0000508BF3368E0601A
:107E800008BFA3611148E780658101A900F005FBE7
:107E900036B1E36833600E4B75601B89B572338170
:107EA000FFF78EFF0020B7E748F20160B4E748F221
:107EB0000460B1E748F20360AEE748F20260ABE766
:107EC000402B0020642B00205C2B0020182C00206D
:107ED000482B002008B5034607480268042A08D04A
:107EE0000168064A42F82130012100F0BFFB002062
:107EF00008BD48F20B60FBE7342C0020302B00203B
:107F00002DE9F04FDFF8208289B01422002103A868
:107F10000AF0ADFC98F8003003F0FF0200923BB18C
:107F200003A8FFF7F1FA0027384609B0BDE8F08F43
:107F300008F1040000F0B2FB0028F4D1009BDFF848
:107F4000ECA1D3F8F83F5C1C08BF4FF010234FF0B2
:107F5000805208BF5B6911695269581C08BF02FB57
:107F600001F3CAF810306949A3F540530022504686
:107F7000CAF80C3000F0C4FD07460028D4D11C23F9
:107F800063496448DFF8A8B18C2200F027FA032384
:107F9000B9463D4601933C46DAF80C604E44304603
:107FA000FFF792FB012867D0032817D000283DD1A6
:107FB00059494FF0140C0CFB04FC01EB0C0201F8C6
:107FC0000C0056600CF110020CF1080C0A4430460B
:107FD0006144FFF791FB45F002054AE03268531C0B
:107FE00002D04E4B9A4239D1321D06F580511068AD
:107FF000013033D104329142F9D1DBF800203AB993
:1080000002220123CBF80060ABF8042000930BE0C0
:1080100014226243404B022099189854404A4E6003
:10802000548001340881A4B245F0010509F5805956
:10803000B9F5405FB0D1019B012B98BF0025EDB28F
:10804000022D03D0062D36D0002D3ED1002388F816
:10805000003048F20A67C8F8043065E7019B2E49F2
:108060005A1E93B21422624388180193466003207B
:1080700088540134A4B2D9E7009B6BB1264B14227B
:108080006243991802209854DBF800204A60244A81
:10809000088154800134A4B200222249CBF8006048
:1080A0003046FFF729FBBBF80420022A0CBF04224C
:1080B00008221543BAE7012388F8003003A80023FB
:1080C000C8F80430FFF720FA2EE702A8FFF7EEFA0F
:1080D000C8B10123013D03700A2D09D8DFE805F07E
:1080E00006080608070807080F110F000023037190
:1080F00002A9084800F0D1F9FFF762FE14E7032354
:10810000F5E70223F3E748F207670DE718350300A8
:108110008C2B0020182C0020642B0020DEC0ADDE4C
:10812000482B0020302C0020402B00207022002003
:108130002C2C002073B50D460446C8B1C1B10DF119
:108140000601FFF737FBB0B1BDF806300B48666893
:10815000142202FB030001210C3000F087FA63684F
:108160002E600C336B600123A372002002B070BD3F
:1081700048F20460FAE748F20960F7E7642B002050
:1081800013B50446A8B10DF10601FFF713FB98B132
:10819000BDF806200B4B142101FB0233DA6872B1E3
:1081A000A27A62B1DA680020013ADA60A07202B005
:1081B00010BD48F20460FAE748F20960F7E748F2B8
:1081C0000560F4E7642B002002230022FFF706BEBF
:1081D00018B103230022FFF701BE48F20460704784
:1081E000114B1B7813B50446ABB14FF6FF739842A1
:1081F00014D001A8FFF75AFA98B1052303700123A0
:108200000371C48001A9094800F047F9FFF7D8FDC0
:10821000002002B010BD48F20160FAE748F20360A6
:10822000F7E748F20760F4E7402B0020182C002005
:108230000F4B1B7807B5A3B101A8FFF737FA98B128
:108240000623037001A90B4800F027F90A4B1A789E
:108250000AB101221A73FFF7B3FD002003B05DF8E5
:1082600004FB48F20160F9E748F20760F6E700BF57
:10827000402B0020182C0020482B002007B5ADF81B
:108280000600ADF804100DF1060001A9FFF7E4FAAD
:1082900003B05DF804FB07B51346ADF806000A46C7
:1082A00000200DF10601FFF7D7FA03B05DF804FBDB
:1082B00007B51346ADF806000A460DF10600002189
:1082C000FFF7CAFA03B05DF804FB20B119B10368E7
:1082D0000B600020704748F2046070472DE9F84FAA
:1082E0003C4B1B780446002B6DD000286ED0DFF885
:1082F000E890122200210AF0BAFA032323804FF0FB
:10830000000A4F4614264FF00108D9F80410B9F8B6
:108310000AB0B9F808500846FFF7D6F9032808BF95
:108320002388628804BF03F1FF33238006FB0A73AE
:108330005D44DB681344638023899B446389A4F80C
:1083400008B0ADB22B446381C5F58065A389ADB299
:10835000AB4238BFA58101F1080501F58051A94262
:1083600029D92B68013326D02846FFF7DDF80128EC
:108370000AD0022815D00028F1D1A3880133A380A8
:108380000AE04FF0010AC0E7E3880133E380E389A4
:108390006A8803331344E3816B88033305EB830559
:1083A000DDE7E38884F810804D1BE189013301EBA0
:1083B000A501E380E18109F11409BAF1000FE0D0D1
:1083C0000020BDE8F88F48F20160FAE748F2046047
:1083D000F7E700BF402B0020642B002010B561B1EF
:1083E000B2FBF3F403FB1424A4B244B9C0E90014B3
:1083F00084608281C381204610BD0E20FCE70920E5
:10840000FAE782B050E8022FC188B2EB324F4FF04A
:10841000000317BF92B241EA014142EA014104E080
:108420004268B2EB324F08BF012340E80212002A33
:10843000E8D18DF807309DF80730002B0CBF1120D4
:10844000002002B0704737B550E8013F9DB2C489A3
:1084500025448489A54228BF2D1B0489A54202BF5B
:10846000BFF32F8F002207E0C5EA030540E801545F
:10847000002CE9D14FF001028DF803200193019AFD
:108480000A609DF8031001F0FF0321B1006810FAA3
:1084900082F003B030BD1846FBE70A884B889A4249
:1084A00009D150E8012FC2EA024240E80123002B23
:1084B000F7D1012070470020704737B550E8023FE0
:1084C0001FFAA3F5C488A54202BFBFF32F8F002275
:1084D0000DE0C48925448489A54228BF2D1BC3EA29
:1084E000054540E80254002CE8D14FF001028DF818
:1084F00003200193019A0A609DF8031001F0FF0325
:1085000021B1006800EB124003B030BD1846FBE714
:108510000A884B889A4209D150E8022FC2EA2242C7
:1085200040E80223002BF7D101207047002070475C
:1085300001F01F024B090121914000EB830000F084
:1085400065B84B0910B501F01F040121A14000EBF3
:10855000830000F04FF8E04000F0010010BD01F092
:108560001F0301229A404B0900EB8300D14300F026
:1085700065B84B0901F01F0150F82300C84000F016
:10858000010070472DE9F0474F1E7F0980460E46D7
:108590000137002558F8254008EB8509E44394FA93
:1085A000A4F4B4FA84F44FEA451A202C06D101351C
:1085B000AF42EFD834462046BDE8F0875444A64287
:1085C000F5D921464046FFF7BCFF0028F3D0D9F883
:1085D0000040E44394FAA4F4B4FA84F4E5E710B557
:1085E000034653E8000F0A4643E8002494F0000FC6
:1085F000F7D110BD10B5034653E8000F40EA010261
:1086000043E8002494F0000FF6D110BD10B50346E6
:1086100053E8002F42EA010043E8000494F0000F01
:10862000F6D110BD10B5034653E8000F00EA010271
:1086300043E8002494F0000FF6D110BD10B50346B6
:1086400053E8002F02EA010043E8000494F0000F11
:10865000F6D110BD10B5034653E8000F00EB010240
:1086600043E8002494F0000FF6D110BD10B5034686
:1086700053E8002F02EB010043E8000494F0000FE0
:10868000F6D110BD10B5034653E8002FA2EB010050
:1086900043E8000494F0000FF6D110BD0121FFF76C
:1086A000A9BF0121FFF7B2BF0021FFF7BBBF10B583
:1086B00090B1D0E9012301689B1ADBB20A60013B4B
:1086C000DBB2FF2B026802D10020107110BD1168CF
:1086D0004C1C14600B70F2E70E20F7E737B5054627
:1086E00000240DF107008DF80740FEF795FD2A687C
:1086F0006B68116899420ED9481E106011F8013C50
:10870000EC68298A01FB0344AB6811791B1ADBB2C0
:10871000994238BF13719DF80700FEF7A1FD20466E
:1087200003B030BD37B5054600230DF107000C46F8
:108730008DF80730FEF770FD2A681368591C116028
:10874000E968641A298AB4FBF1F41C709DF80700EB
:10875000FEF786FD03B030BD826810B504462AB12D
:1087600043690168006998470023A36010BD0EB4F7
:1087700003B5039921B104AB01AA019300F076F887
:1087800002B05DF804EB03B070470A2938B504461F
:108790000D4602D10D21FFF7F8FFA3682268591C8E
:1087A000A160D554D4E901329A4204D32046BDE8F1
:1087B0003840FFF7D1BF38BD2DE9F84F9846DDE9C5
:1087C0000A43154682460F460A464FF00109AA425F
:1087D0000FD2C14538BFC14613F0010B01D16CB9AE
:1087E00000240126B8F1010F1BD908F1FF386E43B0
:1087F000F8E709F10109B2FBF5F2E8E79B070ED5AE
:10880000B8F1000F0CBF30262026A145E9D2013C6B
:1088100031465046FFF7B9FF002CF6D1E0E720269D
:10882000F3E7B7FBF6F39D42E1D9DFF83C80B7FBF5
:10883000F6F3504618F8031006FB1377FFF7A5FF71
:108840003346AB42B6FBF5F6F1D2BBF1000F02D0D6
:108850000CB1A14501D3BDE8F88F20215046013C61
:10886000FFF793FFF4E700BF1C3303002DE9F74F38
:10887000054617468846002900F03E8118F8011B7E
:1088800049B92B7B002B00F03781284603B0BDE8A7
:10889000F04FFFF761BF252940F0B780002698F818
:1088A00000302D2B424608F1010823D0302B24D074
:1088B0002B2B25D000242A2B02F1010123D13B6868
:1088C0001A1D1B683A601C440A4613782E2B26D1C9
:1088D00001324FF0000A104610F8011BA1F1300CD4
:1088E000BCF1090F1DD80A2303FB0A13A3F1300AB8
:1088F0000246F0E746F00106D1E746F00206CEE771
:1089000046F00406CBE711F8013CA3F1300009283A
:10891000DBD80A2202FB0434303C0A46CBE74FF096
:10892000000A12F8011B01F0FB0068289046F8D0FD
:10893000782909D86F290CD8632962D022D8252933
:1089400063D0582900F0888098F80030002B95D12A
:1089500097E770390829F7D801A353F821F000BF31
:10896000D38A02004989020049890200698A02000B
:1089700049890200478A02004989020049890200A8
:10898000598A0200642901D06929DDD13A68D2F8F8
:108990000090111D89EAE9723960A2EBE9724FF08B
:1089A000010B092A35DCD34538BFD3462CB1B9F1C8
:1089B000000F01DB720700D5013CB30702D5BAF105
:1089C000000F03D0F00701D44CBB0024B9F1000F15
:1089D0002DDAC9F100092D212846FFF7D6FE06F051
:1089E0000302022A04D1BAF1000F01D11CBB0024FA
:1089F000CDE9004653460A2249462846FFF7DCFEE9
:108A0000A2E73B681A1D19783A602846FFF7BDFEB9
:108A10009AE70A230BF1010BB2FBF3F2C1E7A3457E
:108A2000D4D220212846013CFFF7AFFECCE77107E6
:108A3000D5D52B21D0E7A345DAD230212846013CF9
:108A4000FFF7A3FED2E73968CDE900460A1D3A6078
:108A500053460A220968D0E739680A1D3A60CDE911
:108A6000004653461022F5E73B681A1D3A6016F09F
:108A70000106D3F8009024D1B9F1000F03D0484685
:108A800009F028FF0646B4421DD809F1FF3919F84C
:108A9000011F00293FF458AF2846FFF776FEF6E79E
:108AA00028460136FFF771FE19F806100029F7D1A4
:108AB000A642BFF449AF20212846013CFFF765FEDE
:108AC000F6E70026F0E720212846013CFFF75DFE8F
:108AD000D9E73B681A1D3A60302128461C68FFF729
:108AE00054FE78212846FFF750FE00220823CDE9E6
:108AF00000322146102280E703B0BDE8F08F00BFAE
:108B000013B50B46114680B9104B1148114AC01AD3
:108B10000E23C0080093104B0004104940F00100E0
:108B2000FDF7A9FF0E2002B010BD4BB9074B084856
:108B30000B4AC01AC0080E2300930004064BECE752
:108B400003601B6802B0BDE81040184724300300E2
:108B5000AC3003002C330300FA340300313303003C
:108B600060330300F7B580B92D4B2E482E4AC01A4A
:108B7000C0080E242D4B009400042D4940F0010044
:108B8000FDF779FF204603B0F0BD4AB9244B2548D4
:108B9000284AC01AC0080E24244B00940004ECE7B5
:108BA000D0F800C0BCF1000F09D11D4B1D48224A6E
:108BB000C01AC00808241D4B00940004DDE74BB91F
:108BC000174B18481D4AC01AC0080924174B0094B7
:108BD0000004D2E78D0709D0114B1248184AC01A79
:108BE000C0081024114B00940004C6E7C568A942D0
:108BF0000BD34D1EEC180569AC4206D8DCF80840D2
:108C0000A44603B0BDE8F0406047054B05480D4A57
:108C1000C01AC0081024054B00940004ADE700BF43
:108C200024300300AC3003002C330300E83403008D
:108C300031330300663303005A3303006D330300FE
:108C400071330300883303002DE9F743DDF82880F2
:108C500088B93E4B3E483F4AC01AC0080E243E4BDE
:108C6000009400043D4940F00100FDF704FF204658
:108C700003B0BDE8F0834AB9344B3548384AC01ACE
:108C8000C0080E24344B00940004EBE7D0F800E059
:108C9000BEF1000F09D12D4B2D48324AC01AC00831
:108CA00008242D4B00940004DCE74BB9274B2848DF
:108CB0002D4AC01AC0080924274B00940004D1E7AC
:108CC0004568D5F80490B3FBF9F509FB15354DB1AE
:108CD0001E4B1F48254AC01AC00809241E4B009489
:108CE0000004BFE78D0709D0184B1948204AC01A65
:108CF000C0081024184B00940004B3E712F0030FCF
:108D000009D0124B12481B4AC01AC0081024124B3B
:108D100000940004A6E7C568A9420DD34D1EEC18C7
:108D20000569AC4208D8CDF82880DEF80C40A4468E
:108D300003B0BDE8F0436047044B05480E4AC01A33
:108D4000C0081024044B009400048BE72430030077
:108D5000AC3003002C330300D5340300313303005F
:108D6000AE3303005A3303006D330300B433030002
:108D7000DE330300F633030019340300F7B580B97E
:108D80002A4B2B482B4AC01AC0080E242A4B0094A9
:108D900000042A4940F00100FDF76DFE204603B0B3
:108DA000F0BDD0F800C0BCF1000F09D11F4B204826
:108DB000234AC01AC00808241F4B00940004E8E7A7
:108DC0004AB91A4B1A481F4AC01AC00809241A4B3C
:108DD00000940004DDE74568D5F800E00EF1FF35AA
:108DE0000D4209D0114B1248174AC01AC00810246E
:108DF000114B00940004CCE7C568A9420CD34D1E6A
:108E00000EFB02540569AC4206D8DCF81040A446BB
:108E100003B0BDE8F0406047044B05480B4AC01A58
:108E2000C0081024044B00940004B2E7243003006F
:108E3000AC3003002C330300C23403003133030091
:108E40005A3303006D3303004034030066340300DB
:108E500070B550B90E4D0F4C0026641B1423B4FBA3
:108E6000F3F4B44208D1002010E00368002BF1D0E5
:108E7000BDE87040DB6918472B6813B9013614351B
:108E8000EFE7DB69284698470028F7D070BD00BFA0
:108E9000702200209822002029DF704728DF7047C9
:108EA00070B503689E6886B004460D466EB1142204
:108EB0000021684609F0DBFCA3680593237901953E
:108EC0002BB1012B0DD06846B04706B070BD012311
:108ED0008DF8003023690293E36803936369049378
:108EE000F1E702238DF80030E3681B030293F5E7F6
:108EF0000846704700207047024B187A003818BFA8
:108F000001207047E02C0020034B187A0122B0FAB0
:108F100080F05A7440097047E02C002008B51046D4
:108F20001A4609F07BFC002008BD000008B5142299
:108F30000021044809F09BFC0348FFF762FA002077
:108F400008BD00BFE02C0020D02C002010B5094C3B
:108F5000094B43602046FFF7A1FB40B909F0ECF84C
:108F6000064920741C2306488C22FFF737FA00209C
:108F700010BD00BFE02C00200C350300442C002065
:108F8000D02C002038B5234D234C2B7A3BB92349F4
:108F90002348FFF792FA206008B9686038BD0223C1
:108FA00024682B72237973B1012B24D0204603212E
:108FB000FFF776FF00232B726B6018491848BDE855
:108FC0003840FFF7A5BAD4E90523D21AB2F5805F7D
:108FD000D4E9031028BF4FF480529208012A38BF09
:108FE000012219441844FFF757FF50B11128DDD171
:108FF00001232B72D2E7D4E903031844FFF74EFF95
:10900000F3E72B7C002BC9D1BDE83840022000F0EB
:1090100009B800BFE02C0020F82C0020F42C002020
:10902000D02C002038B5234C237A002B41D0022BC2
:1090300009D1032830D0204B00221B68E2601A7946
:109040003AB1012A22D0637C7BBBBDE83840FFF7F0
:1090500099BFD3E905128D1AB5F5805F94BF5219F7
:1090600002F580529A619142EDD102284FF000033F
:1090700008BF19462372104B18BF0D211868FFF75F
:109080000FFF0E490E48FFF743FADCE71A69013279
:109090001A615B699A42E7E7E3680133082B01D85C
:1090A000E360D0E70023E360DFE7BDE8384009F084
:1090B00033B838BDE02C0020F82C0020F42C002020
:1090C000D02C0020831E012B01D8FFF7ABBF7047C7
:1090D00000F0FD03012B08D1044B00225A74421EFC
:1090E000504250411874FFF74DBF7047E02C0020EC
:1090F00010B5064C201DFFF7D1FA28B9637C1BB9C7
:10910000BDE81040FFF73EBF10BD00BFE02C0020BF
:109110002DE9F34180460D46104801A916461F4629
:10912000FFF791F90446B0B118220021043009F08C
:109130009EFB2D0B0123237101A90848C4F8008070
:10914000A760E5606661FFF7A8F9FFF7D1FF00208F
:1091500002B0BDE8F0810420FAE700BFD02C002067
:109160002DE9F34180460F460F4801A916461D46DA
:10917000FFF769F90446A8B118220021043009F06C
:1091800076FB089BA36001A9C4E903670648C4F8FD
:1091900000806561FFF781F9FFF7AAFF002002B0A8
:1091A000BDE8F0810420FAE7D02C00202DE9F84F2B
:1091B000B0F806A04579D2F800B09DF828900AFBD7
:1091C00005F5043D88460BEB0301A94203F10404B5
:1091D00088BFA5EB030BB4FBFAF607460AFB16445F
:1091E000C2F800B04EB9AAEB04055D4528BF5D4644
:1091F000BBF1000F04D1BDE8F88F3F68013EF1E7F5
:10920000043408EB06003C442A46B9F1000F0DD0A7
:109210002146ABEB050B09F001FBDA452E443F6814
:1092200055464FF0000428BF5D46E1E70146204661
:10923000EFE7FFF73CBAF8B546790146721E0546DE
:10924000002393422D6803D30024A64202D8F8BD20
:109250000133F6E70F682846FFF764FA0134394610
:10926000F3E72DE9F843068ACD1C0746FFF736FAE7
:10927000043E35440446B5FBF6F5F0B14FF4807377
:10928000EDB28380C680013D076081464FF0000843
:10929000A84512D23846FFF721FA064648B163794D
:1092A0000133637108F10108C9F8000007608146C5
:1092B000EEE72046FFF7BFFF34462046BDE8F883BF
:1092C00001210430FFF7D2B910B501210446043062
:1092D000FFF7D8F9C0B220B92046BDE81040FFF72B
:1092E000AABF10BD1FB503920022009203AAFFF788
:1092F0005DFF05B05DF804FB1FB5039201220092EB
:1093000003AAFFF753FF05B05DF804FB41DF704788
:10931000064B10B500241C70054B1C60BFF35F8F1B
:109320000449054800F03BF8204610BD042D0020FC
:10933000082D002044350300FC2C002007B5002335
:109340000DF107008DF80730FDF766FFF1EE103ADA
:1093500023F09F03E1EE103ABFF35F8F0A4B4022E8
:10936000C3F884219DF80700FDF77AFF08F0E4FEBA
:1093700020B103B05DF804EBFFF7C8BF20BF40BFCA
:1093800020BF03B05DF804FB00E100E08368002229
:109390005A60C3E904229A60DA601A6070470B6869
:1093A0004A684360934208BF0023016008BF4360DE
:1093B0007047436843B10268916852680B44934216
:1093C000436004BF00234360704770B5446806469D
:1093D0000D46206818B1B3682946984718B9236824
:1093E0002B60256070BD2468F3E74368186808B1F6
:1093F00002681A60704743681868704743681868C5
:1094000000B97047884203D102681A600120704792
:1094100003460068F4E7000010B50D49A1F5947209
:10942000914201D800200FE08C1AE30F03EBE40314
:109430005B1002EBC30452F83330834205D802D2EA
:1094400004F10802ECE7606810BD2146E8E700BFC0
:10945000503A030008B5FFF7DFFF024B002808BFB2
:10946000184608BD133903004FF08053D3F830017C
:10947000421C04BF4FF0704393F8E00F831F584223
:10948000584170474FF0704393F8E02F062A09D1F6
:10949000D3F8E83FC3F30313033B042B02D8024A7B
:1094A000D05C7047002070475F3A0300024AD2F850
:1094B0000034002BFBD0704700E0014010B5FFF7EF
:1094C000D3FF40B14FF08053944AD3F82433C3F311
:1094D0000423C2F84035FFF7D5FF10B1904B914AF5
:1094E0005A67FFF7C1FF48B14FF080534FF08042F9
:1094F000D3F84432C3F34233C2F83C35FFF7C2FF1E
:1095000030B1894AD2F8FC3023F08073C2F8FC30C5
:10951000FFF7AAFF40B14FF080430022C3F80C21AF
:10952000C3F81021C3F83825FFF7ACFF20B14FF086
:1095300080430322C3F8A025FFF7A4FF60B17B4B53
:109540000522C3F810260122C3F888260022C3F89A
:1095500018263F22C3F814264FF08053D3F8302149
:10956000511C09BF4FF07043D3F8343193F8E02F0A
:10957000D3F8E83F08BFC3F30313062A4DD1033BDA
:10958000042B03D86A4AD35C002B46D04FF080529C
:10959000684BD2F80414C3F82015D2F80814C3F8A5
:1095A0002415D2F80C14C3F82815D2F81014C3F8F7
:1095B0002C15D2F81414C3F83015D2F81814C3F8C7
:1095C0003415D2F81C14C3F84015D2F82014C3F88F
:1095D0004415D2F82414C3F84815D2F82814C3F857
:1095E0004C15D2F82C14C3F85015D2F83014C3F827
:1095F0005415D2F83414C3F86015D2F83814C3F8EF
:109600006415D2F83C14C3F86815D2F84014C3F8B6
:109610006C15D2F84424C3F87025FFF725FF48B134
:109620004FF080534FF08042D3F8583203F04F038D
:10963000C2F8E43EFFF718FF48B14FF08043D3F87B
:109640000024D20744BF6FF00102C3F800244FF09A
:109650008053D3F83021062A0ED1D3F83431033B9E
:10966000042B02D8344AD35C33B1344AD2F83C37A5
:1096700043F48063C2F83C372B4AD2F8883043F475
:109680007003C2F88830BFF34F8FBFF36F8F4FF076
:109690008053D3F83021062A0FD1D3F83431033B5D
:1096A000042B02D8264AD35C3BB14FF01023D3F8E9
:1096B00008224FF08043C3F858254FF01023D3F809
:1096C0000022002A03DBD3F80432002B22DA1D49E2
:1096D00001234FF01020C1F804351524FFF7E6FEF2
:1096E000C0F80042FFF7E2FEC0F80442FFF7DEFEDA
:1096F0000023C1F80435FFF7D9FEBFF34F8F0A49A5
:10970000114BCA6802F4E0621343CB60BFF34F8F82
:1097100000BFFDE70D4B0E4A1A6010BD003001403E
:1097200000C007400DF0ADBA00ED00E00050004071
:10973000503A030000C00040553A030000100040BA
:109740005A3A030000E001400400FA05BC22002060
:109750000090D00338B5074C051E04F1080318BF6C
:109760001C4623682BB11A6822605B68284698471C
:10977000F7E738BD142D002020B9054B01225A709F
:10978000FFF7E8BF012802D1014A9070F8E770475F
:109790000C2D002020B9034B01225A70FFF7DABFCD
:1097A000704700BF0C2D002038B50E4C2378B3B99C
:1097B0000D486360A3602361E36000F0E7F80546AD
:1097C00008F0BAFC08B900F0EDF801232370074B4C
:1097D000D3F800340BB10123A370284638BD85258A
:1097E000F5E700BF0C2D0020799702000000014032
:1097F00037B50D4C00230DF107008DF80730FDF74C
:109800000BFDE368013BE360E36833B9074BD3F832
:10981000005415B900F0D8F8A5709DF80700FDF7C1
:109820001FFD03B030BD00BF0C2D00200000014023
:10983000012813B50CD0032820D038B9134B0122CE
:10984000C3F88020BFF34F8FBFF36F8F02B010BDFE
:109850000F4C00230DF107008DF80730FDF7DCFCFD
:1098600023780BB9FFF7A0FFE3689DF807000133E9
:10987000E3600123A370FDF7F3FCE7E700F092F843
:1098800002B0BDE81040FFF7B3BF00BF00E100E049
:109890000C2D00201FB503788DF80030436801932C
:1098A00083688DF80830C368054A0393054B684602
:1098B00053F8213052F82110984705B05DF804FBA9
:1098C000202D0020242D00201FB503788DF80030B6
:1098D0004368019383688DF80830C368054A039391
:1098E000054B684653F8213052F82110984705B0CF
:1098F0005DF804FB202D0020242D0020F0B5194B2D
:1099000090F800C091F81DE043F82C20164B164645
:109910000A6943F82C20154B03F80CE00C46074667
:109920000FCC89B06D460FC594E80F0085E80F0095
:10993000CDF810C0BEF1000F09D0002E0C4A6946C8
:1099400008BF3246381D00F0EBFD09B0F0BD002E17
:10995000084A694608BF324607F10C0000F0C2FB16
:10996000F3E700BF242D0020202D0020282D00200B
:1099700095980200C998020000F18040002382B04F
:10998000036003680193019B02B07047044A137996
:1099900023B90121106091801846704785207047D7
:1099A0002C2D0020074B1A68D20704D4C02283F85C
:1099B000002301221A604FF080430122C3F81825CA
:1099C000704700BF00E100E04FF0804208B502237D
:1099D000C2F808334FF48270FFF7CEFF0123D36043
:1099E000D2F81834DB03FBD408BD00004FF08041EF
:1099F00010B5D1F8003163B14FF48070FFF7BCFFB0
:109A00000D4B58790122C1F8082310B95A711B680F
:109A100098474FF08042D2F8043163B14FF482701E
:109A2000FFF7AAFF0223C2F80833034BBDE810403A
:109A30001B680120184710BD2C2D002000F180402C
:109A400000F5C040002382B0036003680193019BCE
:109A500002B07047800000F1A040D0F8002722F447
:109A60004032C0F80027D0F8003743EA0141C0F87F
:109A700000177047054B4FF0FF32072843F82020AE
:109A800084BFC01880F84820704700BF342D0020E4
:109A900010B5184991F8583053BB4FF0FF3222FAF5
:109AA00003F0C00748BFC81803F1010348BF80F89E
:109AB0003020202BF3D10024E0B20134FFF7DAFF8D
:109AC0000C2CF9D10C4B0022C0204A6583F8060308
:109AD000402018604FF4BE70FFF7B0FF074B4FF007
:109AE0000040C3F80403012381F85830104610BD2C
:109AF0000820FCE7342D002000E100E00060004079
:109B0000034B93F85800003818BF0120704700BF7E
:109B1000342D002030B52E4B1A1892F93040013404
:109B200053D18C78002C4CD01C46002254F8045B96
:109B3000013541D11C1884F83020002443F822401C
:109B4000920002F1804202F5C0420B78D2F8105523
:109B50004C7825F498151B04240525F4F85504F4D5
:109B6000801403F44033C2F8105523430402D2F8A2
:109B7000105504F4F85423432B43C2F810354A78A7
:109B80000123012A4FF0A04203FA00F30CBFC2F8F0
:109B90000835C2F80C3500F5E073032142F82310B4
:109BA000C2080C49012300F0070003FA00F08B5CA7
:109BB00018438854002003E00132082AB6D104205B
:109BC00030BDFE2382F83030D9E70820F8E700BF27
:109BD000342D0020882D0020012303FA00F04FF0DF
:109BE000A043C3F808057047012303FA00F04FF0C3
:109BF000A043C3F80C057047F0B5394E331893F9FC
:109C00003030002B69DA8D78C5F34005002D0BBF8D
:109C1000082300230C240824A34201D10420F0BD12
:109C200056F82370013743D137185CB246F8232029
:109C300087F8304015B9F21882F848008A7855073D
:109C400016D4D70736D5820002F1A042D2F80057C9
:109C500025F00205C2F80057224FC50800F0070C96
:109C6000012202FA0CF217F805C042EA0C027A55FA
:109C70008A780D7812F0020225D09B0003F1804310
:109C800003F5C0430002D3F8102522F4473222F432
:109C90004072C3F810252D04D3F8102500F4F850B5
:109CA00005F4403528431043C3F810050020B6E7FB
:109CB0000133B1E74D7800F5E0724FF0A047AD00F9
:109CC00047F82250C8E7083C46FA84F494F850005C
:109CD00040EA851584F85050E8E708209FE700BF68
:109CE000342D0020882D002038B5204C251895F9FA
:109CF0003020072A18DD083A44FA82F494F85030EC
:109D00009B09032B0BD14FF0A043D3F81015C14092
:109D100001F001010231BDE83840FFF79BBE012B85
:109D20000CBF02210321F6E7D3B2072B1DD8930005
:109D300003F1804303F5C043D3F8100540F0010060
:109D4000C3F8100502F1400040B2800080B2FFF776
:109D500075FE51B195F9303054F823302BB1012301
:109D600003FA02F2024BC3F8042338BD342D00205D
:109D7000006000402DE9F74F00244E4D01944FF450
:109D80008072012102F1804303F5C04390B21B6849
:109D9000012B06D1D5F804330B4202D0FFF74EFE5B
:109DA0000C430432B2F5907F4FEA4101EAD1414BB6
:109DB000D3F87C31012B0CD14FF4BE70FFF73EFE7F
:109DC0004FF0A04344F00044D3F820250192C3F89B
:109DD0002025E3B2D3B1384F00250126344210D0FC
:109DE000AB0003F1804303F5C043D3F81005D3F86B
:109DF000101557F8253023B1C1F30141C0F30420F9
:109E000098470135082D4FEA4606E7D1002C48DA7D
:109E1000294D4FF0A048294E4FF00009012716F9AF
:109E2000013B5A1C31D0C3F3C20208326A44DCB28F
:109E300012F8042C03F03F0A03F0070307FA03F3B8
:109E40001A4222D00AF5E073504658F82330C3F383
:109E5000014BBBF1020F0CBF03210221FFF7FAFDFA
:109E600007FA0AF3C8F8203505EB0A0393F93030F6
:109E700055F823304BB1A109032904D0BBF1020FDF
:109E800012D1012901D15046984709F10109B9F1D0
:109E9000040FC4D1D8F820350193C8F82035002B21
:109EA000B9D103B0BDE8F08FBBF1030FEDD10229AA
:109EB000E8E700BF00600040342D0020842D002022
:109EC000014B1B68184700BF902D00200E4B984295
:109ED00037B50C4602D0002003B030BD00230DF191
:109EE00007008DF80730FDF797F9084B1D7915B974
:109EF00001221C601A719DF80700FDF7B1F9002DD1
:109F0000E9D01120E8E700BF00200040902D00209C
:109F1000034B984201BF034B00221A601A7170472D
:109F200000200040902D00200023435082B0435871
:109F30000193019B02B070470A4610B54FF48E7131
:109F4000FFF7F2FF136A9168C95C136A0133136269
:109F5000C0F81C1510BD8B690A4610B54FF484710A
:109F600023B9FFF7E1FFD0F8183510BDFFF7DCFF8C
:109F7000536AD168D0F81805C854536A0133536244
:109F8000F3E700001FB501238DF80030044BCDE945
:109F90000110D3E900126846904705B05DF804FB54
:109FA000982D002030B54D4DD5F804339A0585B075
:109FB00051D5D5F82431002B4DD04FF4927128465D
:109FC000FFF7B2FF4FF40173C5F80833444B93F821
:109FD00029200AB901226A60404902228DF8002036
:109FE000D1F88024C1F8802403929A690292DA6839
:109FF00001920022C3E906226846D3E90012904785
:10A000003648D0F81C315BB1354A5169136A994220
:10A010004DD992F82830002B49D11146FFF78CFF1B
:10A020002E48D0F84431002B56D04FF4A271FFF7E0
:10A030007BFF2B4B93F829200AB1012202609A6919
:10A04000002A49D0586AD96800229A6105B0BDE853
:10A050003040FFF797BFD5F804335B07D0D5D5F86C
:10A060000831002BCCD01E4C1C482146FFF773FF53
:10A07000636AA2699A42C3D1E369E1684BB1A36103
:10A080002369E3600023606AE3616362FFF77AFF9C
:10A09000B6E794F829300BB901236B600F4B4FF4EE
:10A0A0000172C3F808230023606AA361EEE70B483E
:10A0B0004FF48E71FFF738FF5369002BB0D0516910
:10A0C0000291002391688DF8003001915361684638
:10A0D000D2E900139847A3E705B030BD0020004047
:10A0E000982D00202DE9F843534D90F804802C233F
:10A0F00003FB0853064693F82A300C469146002B82
:10A1000040F096804D490068FFF7E0FE07460028C2
:10A1100040F0908022683068511C0BD04FF0A04175
:10A1200001239340C1F8083502F5E0734FF0030CAA
:10A1300041F823C061684B1C1FBF01F5E0734FF06D
:10A14000A04C4FF0000E4CF823E0A369C0F8243572
:10A1500094F814C0637DBCF1010F4CEA0303C0F80E
:10A160006C35C0F81415C0F80C251DD1A268531C1D
:10A170001FBF02F5E0734FF0A0414FF0000C41F813
:10A1800023C0E368591C0BD04FF0A04C012199402B
:10A19000CCF8081503F5E0714FF0030E4CF821E000
:10A1A000C0F80835C0F810252C2202FB08F2AB18C5
:10A1B000C3F804902369AB50B9F1000F20D04FF4DD
:10A1C0008E71247FFFF7B0FE4FF4A2713068FFF765
:10A1D000ABFE32681A4BC2F80433130B42F307325A
:10A1E0006101002AC9B21EDB1648841884F80013E6
:10A1F0000121520903F01F0301FA03F340F8223052
:10A2000033680422C3F800252C2303FB08530022E3
:10A21000C3E9062283F829205A61012283F82A2003
:10A220003846BDE8F883084A03F00F03D154E7E746
:10A230000827F5E71127F3E7982D0020A59F0200D6
:10A240008000020000E100E014ED00E0F8B50368D2
:10A250000579304C0022C3F800252C2202FB054270
:10A260005268A2B12C4AC3F808231A0B43F30733F0
:10A27000002B0CDB02F01F015B0901228A40203316
:10A28000264941F82320BFF34F8FBFF36F8F00683B
:10A29000D0F80C65D0F81415D0F80835D0F8102592
:10A2A0004FF0FF37BE42C0F8147518BF06F5E076D0
:10A2B000C0F80C75C0F80875C0F810751EBF4FF0D7
:10A2C000A0474FF0020C47F826C04E1C1FBF4FF0AE
:10A2D000A04601F5E071022746F82170511C1FBF0E
:10A2E0004FF0A04102F5E072022641F822605A1CAC
:10A2F0001FBF03F5E0734FF0A042022142F8231084
:10A30000FFF706FE2C2303FB0544002384F82A30C4
:10A310006360F8BD982D00208402020000E100E097
:10A320000279044B2C2101FB02335869003818BF15
:10A3300001207047982D00202DE9F84F064690F82F
:10A34000048089469246FFF7EBFF044600283CD183
:10A35000204F2C2508FB057B4FF48E71CBF814A001
:10A36000CBF80890CBF820008BF828003068FFF776
:10A37000DBFD3068012383605946FFF7DDFDDBF824
:10A3800004305D461BBB3068DBF814402B6A9C42EE
:10A3900011D83368D3F81C21002AFBD00122DA60DF
:10A3A00000202C2303FB087700237B61BDE8F88F96
:10A3B00095F828303BB9D0F81C31002BF8D059461D
:10A3C000FFF7BAFDE2E70F20EBE71120EEE72046AA
:10A3D000ECE700BF982D00200023435082B0435883
:10A3E0000193019B02B070471FB501238DF8003027
:10A3F000044BCDE90110D3E900126846904705B03F
:10A400005DF804FBC42D00207FB5434AD2F82461D7
:10A41000002E60D010464FF49271FFF7DDFF02234B
:10A420008DF80030D2F88034C2F880340393D2F82B
:10A430003C350293394BDA6801920022C3E90622C7
:10A440006846D3E9001290473348D0F8443173B1DD
:10A450004FF4A271FFF7C0FF304B9A693AB1002266
:10A46000C3E90622D968D0F83C05FFF7BDFF2A48AA
:10A47000D0F82031ABB14FF49071FFF7ADFF01235D
:10A48000C360264B5A6962B1D0F84C150291002284
:10A4900099688DF8002001915A616846D3E900124D
:10A4A00090471D48D0F858319BB14FF4AC71FFF77D
:10A4B00093FF1A4B5A6962B1D0F84C1502910022F1
:10A4C00099688DF8002001915A616846D3E900121D
:10A4D000904704B070BDD2F81031002BB4D04FF4C7
:10A4E00088711046FFF778FF0C4BD2F83C0599694C
:10A4F0008842A9D1DC69D96864B1D2F8005225F04C
:10A500002005C2F800521A699C61DA60DE61FFF72B
:10A510006BFF99E79C61FAE700200040C42D002002
:10A520002DE9F8435A4E90F80480242303FB086376
:10A53000044693F820300D469146002B40F0A3804E
:10A5400054490068FFF7C2FC0746002840F09D8090
:10A550002A682068511C0BD04FF0A0410123934082
:10A56000C1F8083502F5E0734FF0030C41F823C041
:10A5700069684B1C1FBF01F5E0734FF0A04C4FF012
:10A58000000E4CF823E0AB69C0F8243595F814C0F0
:10A590006B7DBCF1010F4CEA0303C0F86C35C0F8C9
:10A5A0000C25C0F814151DD1AA68531C1FBF02F555
:10A5B000E0734FF0A0414FF0000C41F823C0EB686E
:10A5C000591C0BD04FF0A04C01219940CCF8081534
:10A5D00003F5E0714FF0030E4CF821E0C0F80835A8
:10A5E000C0F81025242202FB08F2B318C3F8049027
:10A5F0002B69B350B9F1000F2FD04FF488712A7F27
:10A60000FFF7EAFE20684FF49071FFF7E5FE20683F
:10A610004FF49271FFF7E0FE20684FF4A271FFF74C
:10A62000DBFE4FF4AC712068FFF7D6FE23681A49B1
:10A63000C3F80413190B43F307335201002BD2B2B2
:10A640001CDB1648C51885F8002301225B0901F0C0
:10A650001F0102FA01F140F8231023680822C3F811
:10A660000025242303FB08660023C6E90633736133
:10A67000012386F820303846BDE8F883084B01F006
:10A680000F015A54E9E70827F5E71127F3E700BF60
:10A69000C42D002009A402001003420000E100E0E4
:10A6A00014ED00E0F8B5444C0579242303FB054381
:10A6B00002465B680068ABB1404BC0F8083340F31A
:10A6C0000733002B4FEA10310CDB01F01F065B094A
:10A6D0000121B14020333A4E46F82310BFF34F8F8B
:10A6E000BFF36F8FD0F8003223F02003C0F80032A0
:10A6F000242303FB05439B692BB14FF4A271FFF7A1
:10A700006BFE012343604FF4AC71FFF765FE01233C
:10A71000C360242303FB0543D0F858110029FBD064
:10A72000996919B1D0F844110029F5D00023C0F877
:10A7300000351368D3F80C75D3F81465D3F80825E1
:10A74000D3F810154FF0FF3C6745C3F80CC518BF90
:10A7500007F5E077C3F814C5C3F808C5C3F810C5FA
:10A760001EBF4FF0A0434FF0020C43F827C0771CE8
:10A770001FBF4FF0A04306F5E076022743F826708E
:10A780004E1C1FBF01F5E0714FF0A043022643F8B5
:10A790002160531C1FBF4FF0A04302F5E07202215D
:10A7A00043F82210FFF7B4FB242303FB05440023E6
:10A7B00084F820306360F8BDC42D002010034200EF
:10A7C00000E100E00279044B242101FB02335869C7
:10A7D000003818BF01207047C42D002001F06043ED
:10A7E000B3F1005F2DE9F0470646884692463BD11B
:10A7F00090F80490FFF7E6FF0446002836D11D4F7D
:10A800003068242505FB09754FF49071C5F814A034
:10A81000C5F80880FFF7E0FD4FF4AC713068FFF732
:10A82000DBFD33686A69A968C3F84415C3F8482595
:10A8300001229A606A68DAB9D3F82021D3F8580166
:10A840001AB90028F8D00F2007E00028FBD1012218
:10A85000DA60D3F85821002AFBD0242303FB0977C0
:10A8600000237B61BDE8F0871020FBE71120F9E7AA
:10A870002046F7E7C42D00200023435082B0435800
:10A880000193019B02B0704738B51D4602230B713E
:10A890000B684A7104467BB112F0040F0CBF822191
:10A8A0009221100748BF41F02001D306236848BF1A
:10A8B00021F08001C3F8001320684FF48271FFF784
:10A8C000DBFF12F0800F206805BF012343514019C0
:10A8D000002038BD2DE9F04F484E077906EBC7033D
:10A8E00085B01B7905460C464FEAC709002B40F09E
:10A8F000828046F8372001396A4604F103084FF098
:10A90000010A4FF0A0404FF0030B11F801CFBCF14A
:10A91000FF0F67D02CF0800313600AFA03FE03F5E3
:10A92000E0731CF0800F14BFC0F808E5C0F80CE518
:10A9300040F823B0884502F10402E6D12868009B64
:10A94000C0F86035019BC0F86435029BC0F86835DB
:10A950000122039BC0F86C35C0F8002594F805C0AF
:10A96000A1792389C0F80CC5C0F80415C0F80835D2
:10A970006389C0F810350023C0F800324FF48E719F
:10A98000C0F80033FFF778FF28684FF48871FFF7AD
:10A9900073FF28684FF48A71FFF76EFF28684FF441
:10A9A0008271FFF769FF56F83730A3B12B68217920
:10A9B00043F3073049010028C3F30733C9B215DB5D
:10A9C0000F4C251885F80013400903F01F0302FA05
:10A9D00003F344F820304E4401233371002005B0C6
:10A9E000BDE8F08F4FF0FF331360A3E7054A03F093
:10A9F0000F03D154EFE70820F1E700BFE82D002056
:10AA000000E100E014ED00E0F0B50E461D461C49E3
:10AA100003790468D6F800E0B6F804C0B768C4F853
:10AA200020E501EBC301F368C4F824C5C4F8287518
:10AA3000C4F82C35C4F840E5C4F844C5C4F84875DA
:10AA4000C4F84C3502F0010303EB5202C4F814259C
:10AA5000EA0712D415F0020203D0002B14BF08221B
:10AA60000422002BC4F8002218BF0C23EAB208BF4E
:10AA70000823BDE8F040FFF707BF1022F1E700BF51
:10AA8000E82D00200379084A016802EBC30213791C
:10AA9000D1F80411DBB219B9981E18BF0120704714
:10AAA00001201071704700BFE82D002038B5036801
:10AAB0000022C3F8002201225A6005460C46FFF727
:10AAC000E1FF38B92846FFF7DDFF18B9002CF9D1AE
:10AAD000204638BD0124FBE72148D0F8103110B5DD
:10AAE0005BB14FF48871FFF7C7FE1E4B5A795107CF
:10AAF00003D51B680BB1012098471948D0F81431D1
:10AB00005BB14FF48A71FFF7B7FE164B5A79120703
:10AB100003D51B680BB1022098471148D0F81C31AF
:10AB20005BB14FF48E71FFF7A7FE0E4B587910F012
:10AB3000100002D11B6803B198470948D0F80431CE
:10AB400063B14FF48271FFF797FE064B01221A7131
:10AB50001B681BB1BDE810400320184710BD00BFA3
:10AB600000C00140E82D00200023435082B043582C
:10AB70000193019B02B070470B7B032B2AD8DFE8BF
:10AB800003F022261A028B685A0304D5D0F84C35FC
:10AB90000A699A4207D18B685B031BD4D0F84C3505
:10ABA0004A699A4216D000230622C0F80035C0F840
:10ABB000002518467047D0F84C350A699A42F2D100
:10ABC000D0F83C35ECE7D0F84C350A69E9E7D0F825
:10ABD0003C35FAE701207047F0B5594D594CD5F88E
:10ABE000243187B0FBB14FF492712846FFF7BCFFC8
:10ABF000D5F80431BBB9A368C5F808330223A360B4
:10AC0000A368C5F80433D5F860311BB1D5F800321C
:10AC10009F0503D44A4B01221A625A61012384F82A
:10AC20002E3007B0F0BDD5F80431002B50D0444889
:10AC30004FF48271FFF798FF236A5E0609D494F8F7
:10AC40002E3033B93F49FFF797FF80F0010084F8B9
:10AC50002E00236A5D0720D43B4E0FCE01AD0FC5F9
:10AC6000336837482B604FF4B071FFF77DFF4FF426
:10AC7000AE71FFF779FF94F8303013B194F82E30AD
:10AC80005BB12F4B0022C3F80022A2602F4AC3F809
:10AC900008232F4B0822C3F88021294AD2F8C43454
:10ACA000C2F8C43498073DD501238DF8003094F8DC
:10ACB00030300BB984F82F30236A5B0703D594F842
:10ACC0002E30002BADD0D4E9003168469847A8E774
:10ACD0001B484FF4A471FFF747FF237B83B91A4F3A
:10ACE0000FCF01AE0FC63B68336094F83030002BB5
:10ACF000D3D1C5F80032A360144BC5F80833C8E7B8
:10AD00004FF40073C5F8003240F20223A36003F150
:10AD1000CE73C5F80833A368C5F804330123AB60CC
:10AD20002B627EE7590701D50223BEE7DA0701D57A
:10AD30000323BAE794F82E30002BB6D00423B4E7EF
:10AD400000300040F02D0020FC2D002002029C016C
:10AD500000E100E04FF0402382B0D3F81821EAB1BF
:10AD60000022C3F81821D3F818310193019B0C4B32
:10AD7000D97FFF2907D0987F01228A404FF0A04158
:10AD800048B1C1F80C2500225A771A72D3E9002184
:10AD9000044802B01047C1F80825F4E702B0704734
:10ADA000242E00202C2E00202DE9F74F90F804804F
:10ADB000644E01924FF0240909FB08F906EB090BD8
:10ADC0009A469BF81C3007460C46002B40F0B58095
:10ADD00005685D492846FFF779F8002840F0AF8004
:10ADE000019B46F80930CBF804A094F800E094F8F1
:10ADF0000CC04FF0A042012303FA0EF3BCF1010F87
:10AE000094BFC2F80C35C2F808350EF5E073012185
:10AE100042F823106378FF2B1FBF9940C2F80C152E
:10AE200003F5E0714FF0030918BF42F82190A278B2
:10AE300008BF4FF0FF33FF2A1FBF02F5E0714FF04C
:10AE4000A04A4FF0040B4AF821B04FF0240101FB57
:10AE5000086618BF914686F82020E2783949F277D3
:10AE600008BF4FF0FF39FF2A17D094F804A04FF025
:10AE7000010B0BFA02FB4FF0A046BAF1000F4ED0C7
:10AE8000C6F80CB502F5E0724FF0030B46F822B09D
:10AE9000242202FB081282F81EA0C5F808E5C5F8B6
:10AEA0000C35A368C5F81095C5F82435637B003BC5
:10AEB00018BF0123BCF1020F34D0BCF1030F34D012
:10AEC000BCF1010F01D143F00203C5F85435A37959
:10AED000C5F8C0350723C5F80035019BABB13B6809
:10AEE000627943F307355201002DC3F30733D2B221
:10AEF0001EDB164C661986F8002301226D0903F04B
:10AF00001F0302FA03F344F82530242303FB08113E
:10AF100000234B7701230B7703B0BDE8F08FC6F811
:10AF200008B5AFE743F00403CFE743F00603CCE7EF
:10AF3000074C03F00F03E254E7E70820ECE7112089
:10AF4000EAE700BF242E002055AD020000E100E03A
:10AF500014ED00E02DE9F3410779474E24237B43AC
:10AF60001446F2180D46517F8646002940F0818034
:10AF7000F35823B114F0140F04BF0123537795E85D
:10AF80000F004FF0240C0CFB076C0CF10C0888E848
:10AF90000F009CF81F20FF2A08D09CF81E100123E8
:10AFA00093404FF0A042C1B1C2F80835296821B1E1
:10AFB00001F06043B3F1005F06D1AA6882B102F0EC
:10AFC0006043B3F1005F0BD0242303FB076600232B
:10AFD0007377102002B0BDE8F081C2F80C35E5E7C8
:10AFE000DEF800306868C3F84415C3F84805E9681E
:10AFF000C3F834250022C3F83815C3F81821D3F854
:10B0000018210192019A14F0010218BF0122C3F81D
:10B01000502514F0020218BF0122C3F84025220770
:10B020005CBF01221A6124227A43B258B2B9D3F824
:10B030001821002AFBD0242303FB0766F27FFF2A96
:10B0400007D0B07F012393404FF0A04218B1C2F85F
:10B050000C350020BEE7C2F80835BBE714F0040049
:10B060004FF0400202D0C3F80823F2E7C3F80423EC
:10B07000B0E71120AEE700BF242E00207FB5037893
:10B080008DF804304368029383688DF80C30C368F0
:10B0900004930369064A8DF81430064B01A853F84F
:10B0A000213052F82110984707B05DF804FB00BF2B
:10B0B000482E0020542E0020F0B50546174615F8FE
:10B0C00004CB124A42F82C70114A42F82C30114B32
:10B0D0000C460FCB85B06E4686E80F0023680093C0
:10B0E00023798DF8053063798DF80630A3680293D3
:10B0F000002FA389084AADF80C3008BF3A466346D2
:10B1000031462846FFF750FE05B0F0BD542E002012
:10B11000482E0020943A03007DB002002DE9F34749
:10B12000002406460F46904600F5A0754FF480397E
:10B13000A2462B688BB1D6F8043309FA04F21A42FE
:10B140000BD0C5F800A02B680193A000019B00F56F
:10B15000A07398B2D7E9003198470134444505F10E
:10B160000405E6D102B0BDE8F0870000F7B5067926
:10B170002F4D0C237343EF183C7A002C55D1EA5025
:10B180004B687B60477903682246A446D4B2A74245
:10B190003CD8CA7843F307345201002CC3F3073379
:10B1A000D2B23DDB234F07EB040C8CF800230122C5
:10B1B000640903F01F0302FA03F347F8243003681D
:10B1C0004A78D3F8040502F0030220F0030002439A
:10B1D000C3F80425D3F808058A7820F0030002F0AC
:10B1E00003020243C3F80825D3F810050A7820F0BB
:10B1F0000F0102F00F020A43C3F810250C2303FBD2
:10B20000065501232B72002003B0F0BD940004F515
:10B21000A074013243F804C01C590194019CB5E7A5
:10B22000054C03F00F03E254C9E70820ECE700BF28
:10B23000602E002000E100E014ED00E00368012230
:10B240001A600279034B0C2101FB023302221A72AD
:10B25000704700BF602E0020036801221A61017947
:10B26000024B0C2000FB01331A727047602E002045
:10B2700037B54FF4803400688C407BB18B0003F508
:10B28000A0730025C550C3580193019BC0F8044327
:10B2900001F5A87140F8212003B030BDC0F8084383
:10B2A000F6E770B4046840F20116D4F800528E40FC
:10B2B00025EA0605C4F80052D4F800522B43C4F81E
:10B2C00000329DF80C3070BCFFF7D2BF0249034832
:10B2D0000422FFF723BF00BF602E00200090004033
:10B2E000024903480422FFF719BF00BF6C2E00205B
:10B2F00000A00040024903480622FFF70FBF00BF2D
:10B30000782E002000A001400720704706207047DB
:10B3100008B5012202210020FFF7F6FF08B1072837
:10B3200010D1072202210120FFF7EEFF08B1072804
:10B3300008D100210A220846FFF7E6FF10B10728CE
:10B3400008BF002008BD00000388102B10B502D0F4
:10B35000112B1ED010BD1A4C2168B1B9012208462C
:10B36000FFF7D2FF08B1072824D1072202210120CC
:10B37000FFF7CAFF08B107281CD1042202210020D0
:10B38000FFF7C2FF08B1072814D1236801332360F7
:10B39000E0E70B4A1368013B1360002BDAD1FFF79B
:10B3A000B7FF0028D6D0074B1B68002BD2D0BDE8D2
:10B3B00010401847034B1B68002BE6D09847E4E782
:10B3C000882E0020842E002008B50020FFF79EFF65
:10B3D00008B1062806D10120FFF798FF10B1062812
:10B3E00008BF002008BD76DF70477ADF70477CDF3A
:10B3F00070478FDF704733DF7047FBF7B1BC000049
:10B400000388212B13B5044635D005D8102B1BD04B
:10B41000112B0CD002B010BD3B2B44D0562BF9D1D0
:10B420002848294B2949C01AC008000441E0264B8E
:10B4300024482749C01AC008000440F0030002B0A5
:10B44000BDE81040FBF700BB1F4B1E482149C01A46
:10B45000C008000440F00300FBF7F6FA1E4BA18879
:10B460001E48198004F0B8FA0028D3D002B0BDE815
:10B470001040FBF775BC144B12481949C01AC0089C
:10B48000000440F00400FBF7DFFA0023A0888DF8E9
:10B49000043001A98DF80530FFF7ABFF0028B9D0C3
:10B4A000FBF75EFCB6E70748074B0E49C01AC00819
:10B4B000000440F00400FBF7C7FAA0881321FFF74F
:10B4C00092FFD1E76C30030024300300EC3A030014
:10B4D000AA3A0300B83A0300C422002068330020CF
:10B4E000C33A0300D73A030037B59748974C0A7818
:10B4F000241AE4080D46240444F004009449019001
:10B50000FBF7A6FA2B780198112B00F21881DFE8DF
:10B5100013F0330035002B003100120037004700D4
:10B5200057006700770087009F00AF00BF00CF0083
:10B53000E100F10001018749FBF786FA01220321AE
:10B54000686800F09DFD844B844983ED020AD3EDC9
:10B55000027AFDEEE77A17EE902A44F0030003B07A
:10B56000BDE83040FBF774BA7D4903B0BDE8304018
:10B57000FBF76ABA7B49F8E77B49F6E77B49F4E7D2
:10B5800001220221686800F07BFD734B784983ED4E
:10B59000040AD3ED047AFDEEE77A17EE902ADCE791
:10B5A00001220221686800F06BFD6B4B714983ED4D
:10B5B000050AD3ED057AFDEEE77A17EE902ACCE77F
:10B5C00001220321686800F05BFD634B6A4983ED4B
:10B5D000060AD3ED067AFDEEE77A17EE902ABCE76D
:10B5E00001220221686800F04BFD5B4B634983ED4B
:10B5F000070AD3ED077AFDEEE77A17EE902AACE75B
:10B6000001220321686800F03BFD534B5C4983ED48
:10B61000080AD3ED087AFDEEE77A17EE902A9CE748
:10B6200068680122022100F02BFD4B4B554983ED48
:10B63000090AD3ED097AFDEEE77A44F0030017EE2C
:10B64000902AFBF705FA504B01221A7003B030BD67
:10B6500001220321686800F013FD3F4B4B4983ED45
:10B660000A0AD3ED0A7AFDEEE77A17EE902A74E71C
:10B6700001220221686800F003FD374B444983ED45
:10B680000B0AD3ED0B7AFDEEE77A17EE902A64E70A
:10B6900001220321686800F0F3FC2F4B3D4983ED44
:10B6A0000C0AD3ED0C7AFDEEE77A17EE902A54E7F8
:10B6B000394A294B116844F0030019B983F8341052
:10B6C000364952E712683649012A18BF012283F829
:10B6D00034204AE701220221686800F0D1FC1E4BA9
:10B6E000304983ED0E0AD3ED0E7AFDEEE77A17EEC0
:10B6F000902A32E701220321686800F0C1FC164B52
:10B70000294983ED0F0AD3ED0F7AFDEEE77A17EEA4
:10B71000902A22E768680122032100F0B1FC0E4B59
:10B72000224983ED100AD3ED107AFDEEE77A44F05A
:10B73000030017EE902AFBF78BF91D4B84E71D4998
:10B7400044F0030011E700BF243003006C30030015
:10B75000013B03000A3B030074330020283B030035
:10B76000503B03007E3B0300AD3B0300DB3B03008B
:10B770000A3C0300333C03005B3C0300813C0300B4
:10B78000A63C0300D63C03008C2E0020053D0300A0
:10B79000233D0300413D0300902E0020623D030045
:10B7A0008A3D0300B13D0300CF3D0300F83D030097
:10B7B0008D2E0020183E030008B503784BB9054BC9
:10B7C0003B211888FFF70FFE18B1BDE80840FBF7D2
:10B7D000C7BA08BDC422002008B50548032102F0FD
:10B7E00015FB18B1BDE80840FBF7BABA08BD00BFA9
:10B7F000942E002010B5044605F09EFC204605F06E
:10B80000BFFC204605F054FA23780D2B03D1BDE888
:10B810001040FFF7E1BF10BDFBF7A2BA00B5ADB015
:10B82000FDF776FD08B1FBF79BFA06F007FC08B1BF
:10B83000FBF796FA002301A90120019306F0CAFC48
:10B8400008B1FBF78DFA01A806F066FD08B1FBF719
:10B8500087FA11234F498DF800300A226846FFF716
:10B86000C6FD08B1FBF77CFA0023ADF80830502381
:10B87000ADF80430A023ADF8063001A84FF4C8732A
:10B88000ADF80A30FFF7B1FD08B1FBF769FA42489D
:10B89000002103F001FF08B1FBF762FA3F4B40487B
:10B8A0000093694604F086F808B1FBF759FA0021C5
:10B8B000342202A806F0DBFF3A4B3B48019301A972
:10B8C00001F09CF808B1FBF74BFAAC22002101A86B
:10B8D00006F0CDFF02238DF8043040F20163ADF88D
:10B8E00006300123ADF814308DF880304FF4967394
:10B8F0002E4A23932E482F4B069201A92A9302F039
:10B9000008FA08B1FBF72CFA2948012102F0FEF9E8
:10B910001422002101A806F0AAFF4FF4F0234FF4EF
:10B92000A032CDE9022303238DF81030224B069379
:10B9300001A8224B079302F0BBFC08B1FBF710FAF9
:10B9400004F048FE08B1FBF70BFA31238DF8043000
:10B9500007238DF8053010238DF8063001A8032346
:10B960008DF807308DF8083004F0D4FE08B1FBF7ED
:10B97000F7F9134804F0B6FE08B1FBF7F1F9114AE4
:10B9800000231370104A1370104A13702DB05DF825
:10B9900004FB00BF523E030054330020FBB30200FF
:10B9A00068330020E9B40200C8320020C022002021
:10B9B000942E002029BA0200B9B7020019B802007B
:10B9C000F5B702008C2E00208D2E00208E2E002038
:10B9D00008B580B10A4B0B480B49C01AC0080004D7
:10B9E00040F00300FBF730F804F0C0FE38B1BDE8CA
:10B9F0000840FBF7B5B9BDE80840FFF7EDBE08BD4C
:10BA0000243003006C3003005D3E030008B5FFF7EF
:10BA1000DBFC08B1FBF7A4F9FFF7EDFC18B1BDE8BA
:10BA20000840FBF79DB908BD58B103280BD1064863
:10BA3000064B0749C01AC008000440F00300FBF79A
:10BA400003B8FFF7E3BF70476C30030024300300F6
:10BA50006A3E030007B5F2EE047A20EE270A4FF0A3
:10BA60003033FCEEC07A0022CDE90023164917EEF0
:10BA7000902A684606F0A8FE684606F02BFF0228CA
:10BA800010D0032815D0012803D19DF800308DF87F
:10BA900007300E4B0E481A8801A901F0D1FA03B005
:10BAA0005DF804FB9DF800308DF806309DF80130FC
:10BAB000EDE79DF800308DF805309DF801308DF8E8
:10BAC00006309DF80230E2E7724F0300C4220020E6
:10BAD000C832002008B54FF480410020FAF716FE66
