:020000022000DC
:1060000000000120756302005D6302005F6302000F
:106010006163020063630200656302000000000028
:1060200000000000000000000000000067630200A4
:1060300069630200000000006B6302006D630200F0
:10604000899C02006F6302008DA00200B5AA0200C5
:106050007DB102006F630200419F02006F63020086
:106060006F6302006F6302006F6302006F630200E0
:106070006F6302006F6302006F6302006F630200D0
:106080006F630200D97702006F6302006F63020042
:106090006F6302006F630200A90903006F630200CF
:1060A0006F6302006F6302006F6302006F630200A0
:1060B0006F6302006F630200000000000000000038
:1060C0006F6302006F6302006F6302006F63020080
:1060D0006F6302006F6302006F6302000000000044
:1060E00000000000000000000000000000000000B0
:1060F00000000000000000000000000000000000A0
:10610000000000000000000000000000000000008F
:10611000000000000000000000000000000000007F
:10612000000000000000000000000000000000006F
:10613000000000000000000000000000000000005F
:10614000000000000000000000000000000000004F
:10615000000000000000000000000000000000003F
:10616000000000000000000000000000000000002F
:10617000000000000000000000000000000000001F
:10618000000000000000000000000000000000000F
:1061900000000000000000000000000000000000FF
:1061A00000000000000000000000000000000000EF
:1061B00000000000000000000000000000000000DF
:1061C00000000000000000000000000000000000CF
:1061D00000000000000000000000000000000000BF
:1061E00000000000000000000000000000000000AF
:1061F000000000000000000000000000000000009F
:10620000354936480A1A02D0072291438D4634494F
:1062100034480A1A06D00722914381F309880222E2
:1062200082F3148830483149314A00F044F831484B
:106230003149324A00F03FF831483249324A00F0E1
:106240003AF832483249334A00F035F83248334997
:10625000334A00F030F833483349344A00F02BF821
:1062600033483449344A00F026F83448344900228F
:1062700000F02CF833483449002200F027F8334866
:106280003349091A082902DB002202604160314AC1
:1062900090471F481F49884205D00268043003B464
:1062A000904703BCF7E700208646EC46002000211B
:1062B000294A9047FEE7884207D0521A05D0037852
:1062C00001300B700131013AF9D17047884202D098
:1062D00002700130FAE770470000012000E0002062
:1062E0000000012000000120783603006422002015
:1062F000CC230020D0630200D0630200300F0300E3
:10630000783603006422002064220020E810030095
:10631000E8100300E8100300E8100300E810030091
:10632000E8100300E8100300E810030078360300CB
:10633000E0370300CC230020CC230020CC23002016
:106340008C3A00208C3A00208C3A00208C3A0020B5
:106350008C5A00209D630200B1C00200FEE7FEE7F8
:10636000FEE7FEE7FEE7FEE7FEE7FEE7FEE7FEE705
:1063700000F002B8FFF7FCBF0F484FF00701884359
:1063800085460E4880470E48016841F4700101605F
:10639000BFF34F8FBFF36F8FFFF732BF09480A4932
:1063A0000A4A884207D0521A05D0037801300B7090
:1063B0000131013AF9D17047000001202196020015
:1063C00088ED00E0D4100300502200206422002059
:1063D000F0B595B01D46164608460C4603F04CF83D
:1063E0001A9B0D93CDE9086500252B46082205A9C7
:1063F00020460A958DF82C500C9503F059F8079B10
:106400000293069B03939DF814308DF8115003F00E
:106410000302012A1DD1BDF81420059DC3F3C20358
:10642000C2F383168DF81030B20008230EA920465F
:1064300003F03EF8C5F3952508AB0093324602AB56
:106440000EA9284600F0C8FB204603F019F815B045
:10645000F0BD022AF8D1BDF81650C3F3C203C5F34C
:1064600089158DF810300827082D2E4628BF0826DC
:106470003B4632460EA9204603F01AF8AD1B08AB86
:1064800002AA31460EA8374400F00AFC002DEBD1D9
:10649000DAE70000014B01221A7070470D2400203A
:1064A0007047000070B50E4D06460FCD88B06C46A3
:1064B0000FC495E80F00002E84E80F00094A0A482F
:1064C0004FF0060308BF00226946009303F064FB07
:1064D00008B100F0B7FD054B1E7008B070BD00BFDD
:1064E000E81003009564020064220020CC23002001
:1064F00007B5044B0093044A4023FFF769FF03B03C
:106500005DF804FB0D650200CD23002038B50D4871
:106510000D4C0E4D002323700378EB5CD2B263B1B7
:10652000043004F041FA08B100F08CFD084B1A78F1
:1065300012B12378002BFBD038BD0C3003F0E2FF02
:10654000F1E700BF642200200D240020602C002011
:10655000CC23002008B50848084A0378D35C3BB137
:10656000043004F085F9BDE808400020FFF79ABF29
:106570000C3003F051FFF6E764220020602C00206D
:106580000120FFF78FBF000008B5FFF7F9FF0448AF
:10659000042100F08BFA034B01225A7108BD00BFA1
:1065A000C410030078220020037813F0040216D0F0
:1065B00003F00303012B03D0022B09D00120704705
:1065C0000A6800880232C0F3831002440A60F5E7CB
:1065D0000B684288023303EB92130B60EEE7104620
:1065E000704700002DE9F04FDFF81CA187B00F467F
:1065F00000230446861C0DF1070015468DF8073070
:1066000000F07CFFDAF804203A60DAF8083003F58D
:1066100080739B1A0AF21C470AF583690AF2144830
:10662000B3421AD30020002D69D004F00F039B0160
:1066300043F0050363F30F00DAF80430DAB20332F3
:1066400033444AF822009DF80700CAF8043000F0ED
:1066500079FF012007B0BDE8F08F0121384602F034
:1066600077F9484602F08FF9404602F08CF9DAF8E3
:1066700008000290C0B203300AEB800002A9FFF7C5
:1066800093FF029B30BBDAB20AEB8202D16803911E
:106690009A1C0133DBB20AEB83030292D3F80CB0ED
:1066A00001F00303012B22D0022B15D08346404674
:1066B00002F06CF910B1029BCAF80830594638460E
:1066C00002F046F9DAF80830DAF8042003F58073AE
:1066D0009B1AA5E7D8B2CEE7BDF80E30C3F38913F5
:1066E00003334FEA1B4B02EB93030293DFE7BDF842
:1066F0000C30C3F383134FEA1B4B1344F5E7A40597
:1067000044F0060098E700BFE0240020064B07484D
:1067100010B500221A7002F068FE044610B9044851
:1067200002F0E6FE204610BDE0240020C00F03006A
:106730003C11030030B50A4C71B10A4A0A49121BD8
:10674000D20800239A4201D1002030BD31F82350F5
:10675000854202D00133F5E7034654F83300F4E7ED
:10676000D40F0300C410030064220020094B013938
:1067700003EBC000032909D8DFE801F00A02040690
:1067800004207047007970474079704700207047B7
:1067900002207047D40F030070470000034BD3E979
:1067A0000130C31A58425841704700BFE02400200E
:1067B0002DE9F04186B0FFF7F1FF0546002840F0D3
:1067C000ED80774CC4F81804BFF34F8FA368029391
:1067D000DBB2033304EB830002A9FFF7E5FE029B63
:1067E00018B1D4F81824002A5AD0DAB2991C01330F
:1067F00004EB8202DBB204EB8303D268DB68049310
:1068000002F00303022B0392029154D1BDF80E3023
:106810006448C3F38917502F3E4628BF502606F11F
:10682000080166F38F13C1F30901ADF80E3002F0D1
:10683000F4FD0546002800F09C8002F01DFE0023B8
:10684000082203A9284602F029FE0299CB43DBB2B5
:106850000133C9B20331B6EB830F4FEA830204EB75
:10686000810125D95FFA82F80823A6EB080628469D
:1068700002F014FEF6B208F108034B4903F0FC03E2
:106880003246284602F00AFE029B033703EB9707C5
:106890000297D4F81834002B43D1D4F8106453E095
:1068A00062689A4294D8A260284606B0BDE8F0819A
:1068B00008233246E5E7012B5BD1BDF80C3039489F
:1068C000C3F38311062928BF062161F3891302311E
:1068D00001F00F018900ADF80C3002F09EFD054675
:1068E000002846D002F0C8FD0023082203A928464C
:1068F00002F0D4FD0026BDF80C20C2F38312B300D1
:10690000964203F10803C4D202994A1CC9B203316A
:10691000029204EB81010422284602F0BFFD0136F9
:10692000E9E7284602F0ACFDFFF738FF80F00100F0
:10693000C5B2B9E7F3685B7923B1336829461B68B0
:1069400030469847F3681E68002EF3D1284602F0BF
:1069500097FD0DF107008DF8076000F0CFFDD4F82A
:1069600018340BB9029BA3609DF8070000F0EAFD04
:10697000DAE7D4F8104454B90C4B0D480D49C01A4D
:10698000C008000440F0020000F05EF8CCE7236885
:1069900020469B689847E3681C68ECE7002583E77E
:1069A000E0240020C00F0300EC240020D40F0300DB
:1069B0000C100300251103002DE9F34704460E4691
:1069C000924601A9012218469946FFF70BFE1C4F7B
:1069D00010B3019D4FF00008AA1CC84508EB020146
:1069E00025D11848002101F06CFF80F3100000044D
:1069F00040EA1440E4006B1C04F03804DBB2EDB252
:106A000044F0010407EB8303033544EA881444EAA5
:106A10008624D86047F825403B781BB1FFF7C8FEB5
:106A20000028FBD1FFF7B8FE02B0BDE8F087C9B27D
:106A300007EB81015AF82830CB6008F10108CCE758
:106A4000E0240020FC28002000231A46FFF7B4BFF2
:106A500007B50123019201AAFFF7AEFF03B05DF86D
:106A600004FB07B5CDE9002302236A46FFF7A4FF24
:106A700003B05DF804FB1FB5CDE90123069B03932A
:106A800001AA0323FFF798FF05B05DF804FB1FB5CB
:106A9000CDE90023069B0293079B03936A460423D8
:106AA000FFF78AFF05B05DF804FB000030B50F4C1E
:106AB000D4F8102403460020114631B9D968087172
:106AC0004AB9C4F810340A6030BDC9680D798542EE
:106AD00006D00968F1E7D26814680C601360F3E728
:106AE00001300A28E8D14FF0FF30EDE7E024002024
:106AF00038B5084B0125D3F810441D7004B938BDD2
:106B0000E3685D71236820465B689847E3681C680A
:106B1000F4E700BFE024002030B5C38885B0044608
:106B20000D4633B1144A00921449154A284601F023
:106B300090FF217A05291DD0637A4BB1A088FFF719
:106B400015FE104B104953F82020284601F081FF14
:106B5000227A0E4BA08853F8222003920021FFF7DF
:106B6000E9FD039A0A490346284605B0BDE83040CE
:106B700001F06FBF05B030BD681103005011030074
:106B800048110300D411030073290300F811030016
:106B90006D11030007B503460846197A052911D07F
:106BA0005B7A2BB1094A0A49019001F052FF019822
:106BB0000849019001F04DFF019803B05DF804EB26
:106BC00001F03CBF002AF8D0F2E700BF68110300D3
:106BD000732903003E1B03002DE9F04385B01F46D7
:106BE0000C9D002395F80C902B7306460C4690469E
:106BF00029463846FFF790FFB8F1060F09D8DFE8BD
:106C000008F00412181F283340003146284601F0CE
:106C100020FF002229463846FFF7BCFF85F80C907C
:106C200005B0BDE8F08322683146284601F011FF27
:106C3000EFE7D4E900233146284601F00AFFE8E7F0
:106C4000A36800933146D4E90023284601F001FFF0
:106C5000DFE7E3680193A36800933146D4E900239A
:106C6000284601F0F6FED4E723690293E368019316
:106C7000A36800933146D4E90023284601F0E9FED9
:106C8000C7E76369039323690293E3680193A368E9
:106C900000933146D4E90023284601F0DAFEB8E734
:106CA00008292DE9F74F80460E4617461C463DD869
:106CB00000251B7B2573214610460193FFF72CFF0F
:106CC000DFF88CA0DFF88CB0AE4232D918F805207E
:106CD0005946204601F0BDFE0135082DF4D11B496F
:106CE000DFF874A0DFF874B0204601F0B2FE4FF078
:106CF00000094E4524D918F809507E2D1ED8284683
:106D00000AF048F8002814BF2A462E225946204689
:106D100001F09FFE09F10109B9F1080FE9D1012243
:106D200021463846FFF736FF019B237303B0BDE8C9
:106D3000F08F5146204601F08CFECDE72E22E5E78C
:106D40005146204601F085FEE4E700BF81110300B3
:106D50007D110300771103007F11030083110300ED
:106D6000C30710B507D4F023054A4008145C23403C
:106D70001943115410BD0901C9B20F23F4E700BF34
:106D8000A829002030B5094B1C78094B196800234D
:106D90009C4202DC0022104630BD11F8335085427F
:106DA00001EBC302F7D00133F2E700BF98290020BE
:106DB000B829002013B504460191FFF7E3FF38B16D
:106DC00043682BB10199204602B0BDE81040184736
:106DD00002B010BD034B044819680022490800F0B6
:106DE00055BA00BF9C2900208022002010B5C0B2F7
:106DF000FFF7C8FF0446007803F098F863785A1E3E
:106E000053425341834208D1044BD3E90023134337
:106E100003D1BDE81040FFF7DDBF10BDA029002061
:106E200037B54308374AD35CC2074CBF1B0903F090
:106E30000F0304460D46042B25D8DFE803F0032694
:106E40002F3C4000F9B10121FFF78AFF00230DF12B
:106E500007008DF8073000F051FB0120A4F120035A
:106E6000C4F12001284A20FA01F100FA03F30B4390
:106E7000A040D2E9004120430B43C2E900039DF842
:106E8000070000F05FFB03B030BD002918BF0221EE
:106E9000204603B0BDE83040FFF762BF49B103218F
:106EA000FFF75EFF0121204603B0BDE83040FFF749
:106EB00081BF0121ECE70029E5D10421E8E709B110
:106EC0000321E5E7FFF74CFF29462046FFF772FF55
:106ED0000DF107008DF8075000F010FB0120A4F120
:106EE0002003C4F12001084A20FA01F100FA03F35B
:106EF0000B43A040D2E9004124EA000021EA030349
:106F0000BBE700BFA8290020A02900202DE9F041FF
:106F1000124E134F00243378A34208DC114BD3E9FF
:106F20000023134318D0BDE8F041FFF753BF3D687D
:106F300005EBC40815F8340002F0F8FF98F80130AA
:106F40005A1E53425341181A4142414115F8340028
:106F5000FFF766FF0134DEE7BDE8F08198290020E5
:106F6000B8290020A0290020092AF7B505460C46BB
:106F700016463ED902F012FFE8B11F4B1F481D60B4
:106F80001F4B204F1C70204B002110221E6009F067
:106F90006CFF1E4B00200021C3E90001013CE4B25C
:106FA0000326FF2C0DD11A4A1A48002103B0BDE870
:106FB000F04000F059B902F0B9FE0028DDD003B06E
:106FC000F0BD9DF8063015F834008DF8046005EB2F
:106FD000C40223F007038DF8063001A993788DF8D9
:106FE00005303A4602F0E4FE013CE4B20028D8D075
:106FF000E5E70720E3E700BFB8290020A829002023
:1070000098290020ED6D02009C290020A029002075
:107010000D6F02001812030070B5084D084E0024D1
:107020002B789C4201D3002070BD3368012113F8F6
:10703000340002F035FF0134F2E700BF9829002048
:10704000B82900201FB50021039001AA44F20100D5
:10705000CDE9011100F004F805B05DF804FB000073
:1070600038B572B6FFF744FDFFF7A2FB0028FBD14D
:10707000104B114C114D1249E41AE408240444F059
:107080000100FFF7E1FCD5F8F030DB0700D500BECA
:107090000C4944F00200FFF7D7FCBFF34F8FEA68BA
:1070A000094B02F4E0621343EB60BFF34F8F00BF64
:1070B000FDE700BFD40F03000C10030000ED00E05B
:1070C0001C120300281203000400FA0510B5D0E9D1
:1070D0000243D1E90202A04272EB03032CBF01205C
:1070E000002010BD08B50A4800F05FFB094AD2E94C
:1070F0000031C018084BD3E9002341F10001904250
:1071000071EB030303D210F1807041F1000108BD5F
:10711000A0220020C0290020382A002037B50546CB
:107120000C460A4801A901F000FB60B105704460FB
:1071300001A9064801F023FB18B1054800F03AFB0D
:10714000002003B030BD0420FBE700BF242A00204C
:10715000A0220020294B73B51E7804461EB90026D4
:10716000304602B070BD0028F9D0FFF7BBFFD4E96C
:1071700002239042994139D300230DF107008DF885
:10718000073000F0BBF923692BB94FF0FF324FF005
:10719000FF33C4E902239DF8070000F0D3F9D4E9D6
:1071A0000530984700250DF107008DF8075000F0D5
:1071B000A5F92369C3B1D4E90212B2F1FF3F08BFB8
:1071C000B1F1FF3F05D05B1842F10002C4E9023281
:1071D00035469DF8070000F0B5F9002DBFD00848EE
:1071E000214602F0A4F9BBE71D46F2E7B3F1FF3FE9
:1071F00008BFB2F1FF3FB2D0F1E700BFC8290020BD
:107200004412030013B5114B11491868019008236B
:107210001048582201F054FA044698B90E4A0F4813
:1072200001A900F0B3F9044660B90C48012100F04F
:107230009FFA01230A4A0948194600F001FA094B4E
:1072400001221A70204602B010BD00BF4012030098
:10725000CC290020242A002045730200A02200200F
:10726000FFFF7F00C829002030B56AB103684FF0E6
:10727000FF344FF0FF355A614A1E5142C3E90245BF
:1072800051411961002030BD0720FCE7F7B50446E5
:1072900000250DF1070017460E468DF8075000F047
:1072A0002DF9D4E90223B3F1FF3F08BFB2F1FF3F4C
:1072B00007D1FFF717FF301841F10001C4E90201BF
:1072C00001259DF8070000F03DF955B12369A7613C
:1072D00003B126612146002003B0BDE8F040FFF76E
:1072E0001DBF284603B0F0BD37B5054600240DF19B
:1072F00007008DF8074000F001F9D5E90223B3F14A
:10730000FF3F08BFB2F1FF3F1FBF4FF0FF324FF00A
:10731000FF33C5E9022301249DF8070000F012F9AC
:1073200034B12946012003B0BDE83040FFF7F6BE76
:10733000204603B030BD0000014800F036BA00BF5F
:10734000A02200202DE9F743064600F019FA40B1CB
:10735000624AD2E9003113F1807341F10001C2E9C0
:1073600000310021304600F01AFA38B15C4C236835
:1073700023B12068FFF7EEFE002323600121304691
:1073800000F00DFA20B1FFF7ADFE564BC3E9000146
:107390005548534C01A901F002FA4FF0FF384FF065
:1073A000FF39A0B9DFF844814D4D404602F0D5F8D1
:1073B000002800F08580D0E90223B3F1FF3F08BF29
:1073C000B2F1FF3F32D1404602F0C1F8EDE7037859
:1073D000012B20D0022B08D1444D284602F0B7F8EB
:1073E000002877D0C0E90289F7E75BB94168D1E9A5
:1073F0000223B3F1FF3F08BFB2F1FF3F02D03B4889
:1074000002F095F801A9384801F0F4F901A93648CD
:1074100001F0C5F9C5E741682368994202D100230C
:107420002360EFE7314802F09BF8EBE7296891B160
:107430002968D1E9020182428B412FD22B68D3E91E
:107440000223B3F1FF3F08BFB2F1FF3F03D0296829
:10745000404602F06CF8404602F079F8D0E9024963
:107460000746FFF73FFE201A69EB0109012879F171
:10747000000318DBB0F5350F13D3FFF75DFF1C4A8F
:1074800002441C484FF49603002100F0F9F890B92B
:107490002B6813B9304600F0CBF82F6003B0BDE87D
:1074A000F0832246EDE71348002100F06EF93846DC
:1074B000FFF750FE01E00D28F9D000232B6074E7A0
:1074C000074B1B68002BE9D1304603B0BDE8F04301
:1074D00000F0B2B8084B01221A7093E7C0290020CF
:1074E000402A0020382A0020242A002044120300C9
:1074F000FFFFB400A0220020C829002070B5EFF3E0
:10750000108672B60C4A946801239CB993600B4BA9
:107510000B4DD3F8801029401160C3F88050D3F888
:10752000841051604FF0FF32C3F88420047006B914
:1075300062B670BD0370FAE7442A002000E100E063
:10754000FC06FFBD084B9A6810B55AB150B9EFF36D
:10755000108172B6054A1C6814605C6854609860BB
:1075600001B962B610BD00BF442A002000E100E06E
:10757000435882B03BB10023435043580193019BD1
:10758000012002B070471846FBE70000F8B5204B19
:107590004479204E43F824201F4A204B06EBC404B4
:1075A0009B1A2279DB081B0432B143F002001C490C
:1075B000FFF74AFA0820F8BD02680C88C2F80845AF
:1075C00090F904508A7804795201002DD2B219DB67
:1075D00014494F1987F8002301226D0904F01F0494
:1075E00002FA04F441F82540427906EBC201012475
:1075F00046F832000C7143F003000B49FFF724FA00
:107600000020D8E7094904F00F040A55ECE700BF51
:10761000582A0020502A0020D40F03001C10030019
:107620005012030000E100E07212030014ED00E0CC
:10763000036801221A607047036801225A6070478C
:1076400073B501F15005AD000068ADB24FF4803460
:107650008C400026C0F80843C0F84843465101F565
:10766000A8714559019522F07F42019D40F82120E3
:10767000C0F844430BB1C0F8044302B070BD000031
:107680002DE9F74F0D4622F07F4402684FF4803712
:1076900005F150068F408046B60002EB8500C2F827
:1076A0004873B6B2C2F80873D2F8041599464FF081
:1076B000000BD0F84035C0F8401542F806B05B1A10
:1076C0009259009223F07F43012B009A4FEA850ADA
:1076D0000CD1264B4FF4806043F001039847D8F853
:1076E000003043F806B09B590193019BD8F8001075
:1076F000D1F80465C1F84473A31B23F07F43012B29
:107700001CD11A4B05F5A875013443F0010341F86B
:1077100025404FF480609847D8F80030D3F80435FE
:107720009E4209D1D8F800300020C3F84473C3F852
:10773000047303B0BDE8F08F0D20FAE78A44C9F165
:10774000FF13CAF84045D1F80405221A013A22F085
:107750007F4203F57F439342EED3002AE2D1013406
:10776000CAF84045D1F804359842DAE79012030090
:1077700003680222C3F8442309B1C3F80423704705
:1077800000684FF48271FFF7F3BE4FF4803303FAC1
:1077900001F10368C3F84813C3F808137047503168
:1077A0008900006889B2FFF7E3BE0368D3F80405D7
:1077B0007047000090F90430002B09DB5A090121C1
:1077C00003F01F0301FA03F34032024941F822306B
:1077D000704700BF00E100E0024B034A1B681068DD
:1077E000184700BF582A0020502A002070B5064DC7
:1077F0000646002455F8043B0BB130469847013447
:10780000042CF7D170BD00BF682A002043880333E1
:1078100000EB830399420BD382884FF6FF739A42A1
:1078200008D0038833B18068431C584258417047E0
:107830000220704701207047033080B240F2FE33CF
:10784000984230B51FD8134B1A783AB91C895D8914
:107850002C440444A4B2B4F5806F0AD91A7DAAB9A5
:107860009A8BDC8B2244024492B2B2F5806F0DD821
:1078700001220A801446142202FB04335A89104460
:107880005881002030BD48F20860FBE748F20660EE
:10789000F8E700BF9C2A00200B4A0C4953881420AB
:1078A00000FB0311CB6833B9042049681070012232
:1078B000074801F063BB07490523137002238B803F
:1078C000012209680023F3E7802A00209C2A002077
:1078D00050220020642B002007B5002305490093A7
:1078E000054A09680548082301F0AEFA03B05DF8BF
:1078F00004FB00BF642B0020A412030050220020D0
:1079000007B5002301460093034A0448082301F009
:107910009BFA03B05DF804FB9C1203005022002088
:1079200013B500230C4600930146084A0848042377
:1079300001F08AFA38B9074B142101FB0431012305
:107940000B7402B010BD48F20D60FAE79812030004
:10795000502200209C2A002037B50A480A4B426872
:107960009C88196853880325033305709BB2002057
:1079700000909B0001EB8401044801F065FA03B01C
:1079800030BD00BF802A0020642B00205022002040
:1079900010B50146044800F0C8FE1C220446002130
:1079A00009F063FA204610BD502B002068B1026830
:1079B000084B9A4209D14068074B984207D00133DF
:1079C000984214BF03200120704703207047002015
:1079D000704700BFDEC0ADDEFE011EF12DE9F041B3
:1079E0000D460223154F2B80164600F5805100F1FD
:1079F00008044FF001088C420ED2236801330BD0EB
:107A00002046FFF703FF48B10EB186F80080022838
:107A100009D14FF480632B80BDE8F081A3683A68F8
:107A2000934200D93B602B886288033313442B8038
:107A30006388033304EB8304DDE700BF942A00204E
:107A400038B5144B14220D4602FB00302B684468F5
:107A500004F58051A3B15C88033403EB84048C42A9
:107A600015D22368013312D02046FFF7CFFE01283C
:107A700008D002280BD00028F1D12C60012038BD9D
:107A80000834ECE76388033304EB8304E7E7002062
:107A9000F5E700BF9C2A0020426873B504460D46F6
:107AA0006AB3234BD9688A4229D31B699A4226D8E4
:107AB00012F0030323D11F490089098988421ED18E
:107AC0002068916888421AD11B4841688A4203D9CC
:107AD00001F580518A420DD381698A420CD901F5A2
:107AE00080518A4208D201222A80B3FA83F04009E9
:107AF00002B070BD1A46F7E748F20963F5E70026C1
:107B00002E800196288801A9FFF79AFF30B92B88AB
:107B100001339BB2012B2B80F3D9E9E7019B22684B
:107B200099689142EED16360024B1B892381DFE7A4
:107B300050220020802A00209C2A00202DE9F843B2
:107B40001C461D4B1B7806460F46154673B382B381
:107B50007CB3DFF86C804FF01409A388012B02D9A5
:107B600048F2096020E009FB03F318F803302BB951
:107B7000A0882146FFF764FF20B92060A388013365
:107B8000A380EAE723681EB1998832889142EFD139
:107B90001FB119883A889142EAD19A68C5E9002351
:107BA000064B1B892B810020BDE8F88348F2016059
:107BB000FAE748F20460F7E7782A0020802A0020DC
:107BC0009C2A002008B5074B5888191DFFF738FF7D
:107BD00018B1BDE80840FFF7BFBEBDE80840FFF799
:107BE0005BBE00BF802A00202DE9F0479F4FDFF8E1
:107BF000A08288B006463B6823B99D48414600F004
:107C0000CEFD38603D6829784B1E052B07D8DFE88C
:107C100013F0200074007400060106015D0148F2B3
:107C20000E641422002103A809F01FF941F61D5328
:107C30009C4208BF00243B6804941A78023A042A44
:107C400000F2FC81DFE812F0DD01E9010B02130212
:107C50001A022EB1874B00225A604FF40644E0E727
:107C60002B79032B1CD8DFE803F014022A35824A53
:107C70001378022B1AD0137D022B4FF0010317D17A
:107C800014214B43D1180020D0544868FFF738FE28
:107C900003E001232B71FFF71FFE002800F0B980DD
:107CA000744B00225A6048F20D64BAE70023E7E7FC
:107CB000704A13700023536041F61D54B1E76F49B9
:107CC0006F48002302222B718A800968012201F08B
:107CD00055F9E2E76B4B684C5B88684A14214B43CB
:107CE000E11800262E714D6810681560958848606F
:107CF0000D810221E6549180C8E7B5F814A0AA7D51
:107D0000DFF87491AEB1022AEB8806D9142101FB89
:107D10000A91DA1C088902440A81142202FB0A999A
:107D2000C3F57F43B9F80A20FD331344A9F80A309C
:107D300093E7142303FB0A9318895C6804EB80041F
:107D4000062A69D8DFE802F0274E36441D5A04009F
:107D500041F61D54AA7DEB88022A06D9142101FBA5
:107D60000A91DA1C088902440A81142202FB0A994A
:107D7000C3F57F43B9F80A20FD331344A9F80A304C
:107D80004FE74148414900234360AB690360FFF777
:107D900083FE00285BD00223AB75002300930423ED
:107DA000EA182146364801F04FF8002831D048F251
:107DB0000D64CFE72B69002B14BF03230123AB75A0
:107DC0000023009305F10C02042304F10801E9E704
:107DD0000123AB750022EB8800922A699B0004F115
:107DE0000C01DFE703290CBF05230623AB75002335
:107DF0000093042305F10802E118D3E70623AB75CD
:107E0000224B1988204B5868FFF78AFD044600284A
:107E1000A0D108B0BDE8F08748F20E649AE7002EC2
:107E20007FF41BAF2B79012B34D0022B3FF444AFEE
:107E3000002B7FF4F4AE02232B710DF10A01EB68E5
:107E4000039303A8CDE90466FFF726FE10B948F2B4
:107E50000964E6E60498BDF80A108388EB8003887D
:107E60002B81FFF75DFD044629E000BF982A002022
:107E7000502B0020782A00209C2A0020642B002010
:107E800050220020802A00205C2A0020702B002035
:107E9000902A0020DFF8009203AA4B463146A81D25
:107EA000FFF74CFE044670B9B9F804100498FFF7C8
:107EB00037FD044648F209639C423FF4FDAE002CB6
:107EC0007FF4AFAEA5E7C9E90066F3E7002E7FF4C3
:107ED000C4AE6C4B1A7BBAB11E731A78013A062AEB
:107EE0003FF69DAE01A151F822F000BF977F02003E
:107EF000BD7F0200DB7F0200E17F02001F7C0200E9
:107F0000E77F0200F97F02001A78072AE5D801A16D
:107F100051F822F0357F0200DB7E0200DB7E02009A
:107F20005B7F02006F7F0200937F0200937F02005D
:107F3000577F02001A89544901321A8100225A805F
:107F40001A730A78B2FA82F252099A720A7DB2FA68
:107F500082F25209DA72012207E04C4958688A8895
:107F60004088033202448A8002221A70B5E75C8896
:107F7000454A4649142505FB0422086854685060A8
:107F80008888108102200C608880002111740622EC
:107F9000EBE70722E9E79A7A32B9DA7A8AB900225E
:107FA0001A705A805A6087E6374900229A72CA6866
:107FB000002AF2D1097C0029EFD05A80FFF702FE97
:107FC00051E70022DA72304A116A0029E7D192F8AB
:107FD0002420002AE3D00122EFE7FFF7BDFC42E7AF
:107FE000FFF75AFC3FE75A88274B142101FB023365
:107FF0005868FFF785FC36E700225A60FFF76CFCF3
:1080000031E701228DF80C201A89ADF818209A88E2
:10801000DB68ADF81A20059310E002228DF80C20E1
:108020001A89ADF818209A88ADF81A20DA689B7D75
:1080300005929A1F534253418DF81C3003A8FFF755
:10804000D5FB0026414612483E6000F0D3FB1148A4
:10805000012100F089FC00287FF4CDADD9E6032290
:108060008DF80C20DA88ADF818201A89D0E70422A0
:108070008DF80C20DB88ADF81830DFE705238DF88C
:108080000C30DBE7802A00209C2A0020642B002093
:10809000502B0020602B0020742B00204068FFF73D
:1080A000A3BD000008B50548012100F045FC18B942
:1080B000BDE80840FFF798BD08BD00BF602B002059
:1080C0002DE9F3419846374B1B7806460D46002BA9
:1080D0005CD000295DD009884FF6FF7399425BD0D0
:1080E0006B88002B58D06B689B0758D14AB92F89F1
:1080F0000DF102013846FFF79FFB30B102B0BDE839
:10810000F08113885788ADF8023001A8FFF740FCD2
:10811000044660B9BDF80220234B142101FB023351
:1081200058890338C01B588148F20760E6E780F899
:10813000008000238375BDF8023083826B68036181
:1081400001211A4800F004FC2B882381B8F1030FA9
:108150006B88A38004BF0423A3754FF0000508BFFC
:108160003368E06008BFA3611148E780658101A919
:1081700000F005FB36B1E36833600E4B75601B8978
:10818000B5723381FFF78EFF0020B7E748F2016038
:10819000B4E748F20460B1E748F20360AEE748F2A2
:1081A0000260ABE7782A00209C2A0020942A002055
:1081B000502B0020802A002008B50346074802689B
:1081C000042A08D00168064A42F82130012100F053
:1081D000BFFB002008BD48F20B60FBE76C2B0020C2
:1081E000682A00202DE9F04FDFF8208289B01422A0
:1081F000002103A808F039FE98F8003003F0FF02D0
:1082000000923BB103A8FFF7F1FA0027384609B006
:10821000BDE8F08F08F1040000F0B2FB0028F4D1B3
:10822000009BDFF8ECA1D3F8F83F5C1C08BF4FF0CF
:1082300010234FF0805208BF5B6911695269581CC6
:1082400008BF02FB01F3CAF810306949A3F5405397
:1082500000225046CAF80C3000F0C4FD0746002842
:10826000D4D11C2363496448DFF8A8B18C2200F004
:1082700027FA0323B9463D4601933C46DAF80C60E1
:108280004E443046FFF792FB012867D0032817D0F1
:1082900000283DD159494FF0140C0CFB04FC01EBB4
:1082A0000C0201F80C0056600CF110020CF1080CE5
:1082B0000A4430466144FFF791FB45F002054AE06D
:1082C0003268531C02D04E4B9A4239D1321D06F50A
:1082D00080511068013033D104329142F9D1DBF87A
:1082E00000203AB902220123CBF80060ABF8042049
:1082F00000930BE014226243404B022099189854DB
:10830000404A4E60548001340881A4B245F0010512
:1083100009F58059B9F5405FB0D1019B012B98BF99
:108320000025EDB2022D03D0062D36D0002D3ED112
:10833000002388F8003048F20A67C8F8043065E77F
:10834000019B2E495A1E93B214226243881801934E
:108350004660032088540134A4B2D9E7009B6BB176
:10836000264B14226243991802209854DBF800200F
:108370004A60244A088154800134A4B20022224970
:10838000CBF800603046FFF729FBBBF80420022A37
:108390000CBF042208221543BAE7012388F80030F5
:1083A00003A80023C8F80430FFF720FA2EE702A83C
:1083B000FFF7EEFAC8B10123013D03700A2D09D879
:1083C000DFE805F006080608070807080F110F0088
:1083D0000023037102A9084800F0D1F9FFF762FEFB
:1083E00014E70323F5E70223F3E748F207670DE7F5
:1083F00098140300C42A0020502B00209C2A00203F
:10840000DEC0ADDE802A0020682B0020782A002004
:1084100050220020642B002073B50D460446C8B1DD
:10842000C1B10DF10601FFF737FBB0B1BDF8063061
:108430000B486668142202FB030001210C3000F097
:1084400087FA63682E600C336B600123A3720020EF
:1084500002B070BD48F20460FAE748F20960F7E73D
:108460009C2A002013B50446A8B10DF10601FFF7C0
:1084700013FB98B1BDF806200B4B142101FB02330E
:10848000DA6872B1A27A62B1DA680020013ADA6081
:10849000A07202B010BD48F20460FAE748F2096029
:1084A000F7E748F20560F4E79C2A00200223002247
:1084B000FFF706BE18B103230022FFF701BE48F202
:1084C00004607047114B1B7813B50446ABB14FF6EF
:1084D000FF73984214D001A8FFF75AFA98B1052308
:1084E000037001230371C48001A9094800F047F912
:1084F000FFF7D8FD002002B010BD48F20160FAE796
:1085000048F20360F7E748F20760F4E7782A0020B2
:10851000502B00200F4B1B7807B5A3B101A8FFF724
:1085200037FA98B10623037001A90B4800F027F928
:108530000A4B1A780AB101221A73FFF7B3FD002023
:1085400003B05DF804FB48F20160F9E748F2076008
:10855000F6E700BF782A0020502B0020802A002058
:1085600007B5ADF80600ADF804100DF1060001A93D
:10857000FFF7E4FA03B05DF804FB07B51346ADF866
:1085800006000A4600200DF10601FFF7D7FA03B0F6
:108590005DF804FB07B51346ADF806000A460DF179
:1085A00006000021FFF7CAFA03B05DF804FB20B112
:1085B00019B103680B600020704748F204607047EF
:1085C0002DE9F84F3C4B1B780446002B6DD000285A
:1085D0006ED0DFF8E8901222002108F046FC032359
:1085E00023804FF0000A4F4614264FF00108D9F8B7
:1085F0000410B9F80AB0B9F808500846FFF7D6F9E0
:10860000032808BF2388628804BF03F1FF33238057
:1086100006FB0A735D44DB681344638023899B4433
:108620006389A4F808B0ADB22B446381C5F58065B9
:10863000A389ADB2AB4238BFA58101F1080501F5B0
:108640008051A94229D92B68013326D02846FFF74B
:10865000DDF801280AD0022815D00028F1D1A3881E
:108660000133A3800AE04FF0010AC0E7E388013339
:10867000E380E3896A8803331344E3816B8803331F
:1086800005EB8305DDE7E38884F810804D1BE18965
:10869000013301EBA501E380E18109F11409BAF18D
:1086A000000FE0D00020BDE8F88F48F20160FAE743
:1086B00048F20460F7E700BF782A00209C2A0020D7
:1086C00010B561B1B2FBF3F403FB1424A4B244B9B6
:1086D000C0E9001484608281C381204610BD0E2051
:1086E000FCE70920FAE782B050E8022FC188B2EB1C
:1086F000324F4FF0000317BF92B241EA014142EA04
:10870000014104E04268B2EB324F08BF012340E868
:108710000212002AE8D18DF807309DF80730002BAF
:108720000CBF1120002002B0704737B550E8013F60
:108730009DB2C48925448489A54228BF2D1B048984
:10874000A54202BFBFF32F8F002207E0C5EA030551
:1087500040E80154002CE9D14FF001028DF80320CC
:108760000193019A0A609DF8031001F0FF0321B103
:10877000006810FA82F003B030BD1846FBE70A88A3
:108780004B889A4209D150E8012FC2EA024240E8E0
:108790000123002BF7D1012070470020704737B527
:1087A00050E8023F1FFAA3F5C488A54202BFBFF3F9
:1087B0002F8F00220DE0C48925448489A54228BF5B
:1087C0002D1BC3EA054540E80254002CE8D14FF0C8
:1087D00001028DF803200193019A0A609DF80310AD
:1087E00001F0FF0321B1006800EB124003B030BD7F
:1087F0001846FBE70A884B889A4209D150E8022FB5
:10880000C2EA224240E80223002BF7D10120704740
:108810000020704701F01F024B090121914000EB3D
:10882000830000F065B84B0910B501F01F04012169
:10883000A14000EB830000F04FF8E04000F00100A1
:1088400010BD01F01F0301229A404B0900EB830089
:10885000D14300F065B84B0901F01F0150F8230027
:10886000C84000F0010070472DE9F0474F1E7F0916
:1088700080460E460137002558F8254008EB85094B
:10888000E44394FAA4F4B4FA84F44FEA451A202C91
:1088900006D10135AF42EFD834462046BDE8F08717
:1088A0005444A642F5D921464046FFF7BCFF0028B4
:1088B000F3D0D9F80040E44394FAA4F4B4FA84F471
:1088C000E5E710B5034653E8000F0A4643E80024E5
:1088D00094F0000FF7D110BD10B5034653E8000F18
:1088E00040EA010243E8002494F0000FF6D110BDE5
:1088F00010B5034653E8002F42EA010043E80004A4
:1089000094F0000FF6D110BD10B5034653E8000FE8
:1089100000EA010243E8002494F0000FF6D110BDF4
:1089200010B5034653E8002F02EA010043E80004B3
:1089300094F0000FF6D110BD10B5034653E8000FB8
:1089400000EB010243E8002494F0000FF6D110BDC3
:1089500010B5034653E8002F02EB010043E8000482
:1089600094F0000FF6D110BD10B5034653E8002F68
:10897000A2EB010043E8000494F0000FF6D110BD13
:108980000121FFF7A9BF0121FFF7B2BF0021FFF7C7
:10899000BBBF10B590B1D0E9012301689B1ADBB2CF
:1089A0000A60013BDBB2FF2B026802D1002010718C
:1089B00010BD11684C1C14600B70F2E70E20F7E735
:1089C00037B5054600240DF107008DF80740FEF786
:1089D00095FD2A686B68116899420ED9481E10608F
:1089E00011F8013CEC68298A01FB0344AB6811795A
:1089F0001B1ADBB2994238BF13719DF80700FEF7CE
:108A0000A1FD204603B030BD37B5054600230DF16A
:108A100007000C468DF80730FEF770FD2A681368D2
:108A2000591C1160E968641A298AB4FBF1F41C70BE
:108A30009DF80700FEF786FD03B030BD826810B5D3
:108A400004462AB143690168006998470023A3607E
:108A500010BD0EB403B5039921B104AB01AA019373
:108A600000F076F802B05DF804EB03B070470A2915
:108A700038B504460D4602D10D21FFF7F8FFA36873
:108A80002268591CA160D554D4E901329A4204D31A
:108A90002046BDE83840FFF7D1BF38BD2DE9F84F7B
:108AA0009846DDE90A43154682460F460A464FF0CE
:108AB0000109AA420FD2C14538BFC14613F0010BCC
:108AC00001D16CB900240126B8F1010F1BD908F1BE
:108AD000FF386E43F8E709F10109B2FBF5F2E8E768
:108AE0009B070ED5B8F1000F0CBF30262026A145FC
:108AF000E9D2013C31465046FFF7B9FF002CF6D1D0
:108B0000E0E72026F3E7B7FBF6F39D42E1D9DFF873
:108B10003C80B7FBF6F3504618F8031006FB1377BA
:108B2000FFF7A5FF3346AB42B6FBF5F6F1D2BBF13A
:108B3000000F02D00CB1A14501D3BDE8F88F202170
:108B40005046013CFFF793FFF4E700BFAC1203006F
:108B50002DE9F74F054617468846002900F03E816B
:108B600018F8011B49B92B7B002B00F037812846F0
:108B700003B0BDE8F04FFFF761BF252940F0B78093
:108B8000002698F800302D2B424608F1010823D02A
:108B9000302B24D02B2B25D000242A2B02F10101CD
:108BA00023D13B681A1D1B683A601C440A4613789F
:108BB0002E2B26D101324FF0000A104610F8011B6F
:108BC000A1F1300CBCF1090F1DD80A2303FB0A13D5
:108BD000A3F1300A0246F0E746F00106D1E746F07D
:108BE0000206CEE746F00406CBE711F8013CA3F1FC
:108BF00030000928DBD80A2202FB0434303C0A4644
:108C0000CBE74FF0000A12F8011B01F0FB006828C7
:108C10009046F8D0782909D86F290CD8632962D0FA
:108C200022D8252963D0582900F0888098F8003090
:108C3000002B95D197E770390829F7D801A353F88D
:108C400021F000BFB78D02002D8C02002D8C020098
:108C50004D8D02002D8C02002B8D02002D8C020008
:108C60002D8C02003D8D0200642901D06929DDD1DF
:108C70003A68D2F80090111D89EAE9723960A2EBD6
:108C8000E9724FF0010B092A35DCD34538BFD346D2
:108C90002CB1B9F1000F01DB720700D5013CB3071D
:108CA00002D5BAF1000F03D0F00701D44CBB002469
:108CB000B9F1000F2DDAC9F100092D212846FFF77F
:108CC000D6FE06F00302022A04D1BAF1000F01D148
:108CD0001CBB0024CDE9004653460A2249462846DB
:108CE000FFF7DCFEA2E73B681A1D19783A602846B8
:108CF000FFF7BDFE9AE70A230BF1010BB2FBF3F27B
:108D0000C1E7A345D4D220212846013CFFF7AFFE9E
:108D1000CCE77107D5D52B21D0E7A345DAD2302196
:108D20002846013CFFF7A3FED2E73968CDE90046AB
:108D30000A1D3A6053460A220968D0E739680A1DBD
:108D40003A60CDE9004653461022F5E73B681A1D0C
:108D50003A6016F00106D3F8009024D1B9F1000F63
:108D600003D0484608F0B4F80646B4421DD809F1CD
:108D7000FF3919F8011F00293FF458AF2846FFF7C3
:108D800076FEF6E728460136FFF771FE19F8061061
:108D90000029F7D1A642BFF449AF20212846013C63
:108DA000FFF765FEF6E70026F0E720212846013CA4
:108DB000FFF75DFED9E73B681A1D3A60302128466F
:108DC0001C68FFF754FE78212846FFF750FE00226A
:108DD0000823CDE900322146102280E703B0BDE828
:108DE000F08F00BF13B50B46114680B9104B1148E8
:108DF000114AC01A0E23C0080093104B00041049FA
:108E000040F00100FDF737FE0E2002B010BD4BB957
:108E1000074B08480B4AC01AC0080E2300930004F1
:108E2000064BECE703601B6802B0BDE81040184732
:108E3000D40F03004C100300BC120300781403008D
:108E4000C1120300F01203002DE9F743DDF828807A
:108E500088B93E4B3E483F4AC01AC0080E243E4BDC
:108E6000009400043D4940F00100FDF704FE204657
:108E700003B0BDE8F0834AB9344B3548384AC01ACC
:108E8000C0080E24344B00940004EBE7D0F800E057
:108E9000BEF1000F09D12D4B2D48324AC01AC0082F
:108EA00008242D4B00940004DCE74BB9274B2848DD
:108EB0002D4AC01AC0080924274B00940004D1E7AA
:108EC0004568D5F80490B3FBF9F509FB15354DB1AC
:108ED0001E4B1F48254AC01AC00809241E4B009487
:108EE0000004BFE78D0709D0184B1948204AC01A63
:108EF000C0081024184B00940004B3E712F0030FCD
:108F000009D0124B12481B4AC01AC0081024124B39
:108F100000940004A6E7C568A9420DD34D1EEC18C5
:108F20000569AC4208D8CDF82880DEF80C40A4468C
:108F300003B0BDE8F0436047044B05480E4AC01A31
:108F4000C0081024044B009400048BE7D40F0300E6
:108F50004C100300BC12030065140300C11203008F
:108F60003E130300EA120300FD1203004413030042
:108F70006E13030086130300A9130300F7B580B92D
:108F80002A4B2B482B4AC01AC0080E242A4B0094A7
:108F900000042A4940F00100FDF76DFD204603B0B2
:108FA000F0BDD0F800C0BCF1000F09D11F4B204824
:108FB000234AC01AC00808241F4B00940004E8E7A5
:108FC0004AB91A4B1A481F4AC01AC00809241A4B3A
:108FD00000940004DDE74568D5F800E00EF1FF35A8
:108FE0000D4209D0114B1248174AC01AC00810246C
:108FF000114B00940004CCE7C568A9420CD34D1E68
:109000000EFB02540569AC4206D8DCF81040A446B9
:1090100003B0BDE8F0406047044B05480B4AC01A56
:10902000C0081024044B00940004B2E7D40F0300DE
:109030004C100300BC12030052140300C1120300C1
:10904000EA120300FD120300D0130300F61303001D
:1090500029DF704728DF704770B503689E6886B0C7
:1090600004460D466EB114220021684607F0FDFE4D
:10907000A3680593237901952BB1012B0DD0684688
:10908000B04706B070BD01238DF80030236902930C
:10909000E368039363690493F1E702238DF80030DA
:1090A000E3681B030293F5E708467047002070470A
:1090B000024B187A003818BF01207047182C002086
:1090C000034B187A0122B0FA80F05A7440097047B5
:1090D000182C002008B510461A4607F09DFE002007
:1090E00008BD000008B514220021044807F0BDFEA9
:1090F0000348FFF7F8FA002008BD00BF182C002035
:10910000082C002010B5094C094B43602046FFF79E
:1091100037FC40B907F02EFC064920741C23064892
:109120008C22FFF7CDFA002010BD00BF182C0020C4
:109130008C1403007C2B0020082C002038B5234D14
:10914000234C2B7A3BB923492348FFF728FB2060A7
:1091500008B9686038BD022324682B72237973B183
:10916000012B24D020460321FFF776FF00232B722A
:109170006B6018491848BDE83840FFF73BBBD4E99D
:109180000523D21AB2F5805FD4E9031028BF4FF44B
:1091900080529208012A38BF012219441844FFF76F
:1091A00057FF50B11128DDD101232B72D2E7D4E94A
:1091B00003031844FFF74EFFF3E72B7C002BC9D1C4
:1091C000BDE83840022000F009B800BF182C00208C
:1091D000302C00202C2C0020082C002038B5234CEB
:1091E000237A002B41D0022B09D1032830D0204B09
:1091F00000221B68E2601A793AB1012A22D0637C0E
:109200007BBBBDE83840FFF799BFD3E905128D1A43
:10921000B5F5805F94BF521902F580529A61914270
:10922000EDD102284FF0000308BF19462372104BFE
:1092300018BF0D211868FFF70FFF0E490E48FFF702
:10924000D9FADCE71A6901321A615B699A42E7E7E9
:10925000E3680133082B01D8E360D0E70023E36023
:10926000DFE7BDE8384007F075BB38BD182C00209B
:10927000302C00202C2C0020082C0020831E012BD9
:1092800001D8FFF7ABBF704700F0FD03012B08D1F9
:10929000044B00225A74421E504250411874FFF78A
:1092A0004DBF7047182C002010B5064C201DFFF74D
:1092B00067FB28B9637C1BB9BDE81040FFF73EBFD0
:1092C00010BD00BF182C00202DE9F34180460D464B
:1092D000104801A916461F46FFF727FA0446B0B109
:1092E00018220021043007F0C0FD2D0B012323714B
:1092F00001A90848C4F80080A760E5606661FFF72F
:109300003EFAFFF7D1FF002002B0BDE8F081042053
:10931000FAE700BF082C00202DE9F34180460F46F4
:109320000F4801A916461D46FFF7FFF90446A8B1EC
:1093300018220021043007F098FD089BA36001A9C2
:10934000C4E903670648C4F800806561FFF717FAAF
:10935000FFF7AAFF002002B0BDE8F0810420FAE781
:10936000082C00202DE9F84FB0F806A04579D2F876
:1093700000B09DF828900AFB05F5043D88460BEBEC
:109380000301A94203F1040488BFA5EB030BB4FB5E
:10939000FAF607460AFB1644C2F800B04EB9AAEB2B
:1093A00004055D4528BF5D46BBF1000F04D1BDE853
:1093B000F88F3F68013EF1E7043408EB06003C44B7
:1093C0002A46B9F1000F0DD02146ABEB050B07F093
:1093D00023FDDA452E443F6855464FF0000428BF70
:1093E0005D46E1E701462046EFE7FFF7D2BAF8B560
:1093F00046790146721E0546002393422D6803D329
:109400000024A64202D8F8BD0133F6E70F682846CB
:10941000FFF7FAFA01343946F3E72DE9F843068AF3
:10942000CD1C0746FFF7CCFA043E35440446B5FB95
:10943000F6F5F0B14FF48073EDB28380C680013D44
:10944000076081464FF00008A84512D23846FFF762
:10945000B7FA064648B163790133637108F1010830
:10946000C9F8000007608146EEE72046FFF7BFFF1E
:1094700034462046BDE8F88301210430FFF768BA7E
:1094800010B5012104460430FFF76EFAC0B220B9CE
:109490002046BDE81040FFF7AABF10BD1FB50392DC
:1094A0000022009203AAFFF75DFF05B05DF804FB00
:1094B0001FB503920122009203AAFFF753FF05B0E4
:1094C0005DF804FB064B10B500241C70054B1C60B6
:1094D000BFF35F8F0449054800F013F8204610BD24
:1094E0003C2C0020402C0020C4140300342C00200D
:1094F000836800225A60C3E904229A60DA601A6025
:1095000070470B684A684360934208BF00230160BC
:1095100008BF43607047436843B10268916852686E
:109520000B449342436004BF00234360704770B50F
:10953000446806460D46206818B1B3682946984726
:1095400018B923682B60256070BD2468F3E7436871
:10955000186808B102681A60704743681868704755
:109560004368186800B97047884203D102681A60DE
:109570000120704703460068F4E7000010B50D496C
:10958000A1F59472914201D800200FE08C1AE30FEC
:1095900003EBE4035B1002EBC30452F83330834265
:1095A00005D802D204F10802ECE7606810BD21463C
:1095B000E8E700BFD019030008B5FFF7DFFF024B53
:1095C000002808BF184608BD931803004FF08053C9
:1095D000D3F83001421C04BF4FF0704393F8E00F02
:1095E000831F5842584170474FF0704393F8E02F63
:1095F000062A09D1D3F8E83FC3F30313033B042B36
:1096000002D8024AD05C704700207047DF1903007F
:10961000024AD2F80034002BFBD0704700E0014032
:1096200010B5FFF7D3FF40B14FF08053944AD3F801
:109630002433C3F30423C2F84035FFF7D5FF10B13C
:10964000904B914A5A67FFF7C1FF48B14FF08053E2
:109650004FF08042D3F84432C3F34233C2F83C3572
:10966000FFF7C2FF30B1894AD2F8FC3023F0807393
:10967000C2F8FC30FFF7AAFF40B14FF08043002250
:10968000C3F80C21C3F81021C3F83825FFF7ACFF4D
:1096900020B14FF080430322C3F8A025FFF7A4FFB9
:1096A00060B17B4B0522C3F810260122C3F888263F
:1096B0000022C3F818263F22C3F814264FF0805327
:1096C000D3F83021511C09BF4FF07043D3F8343127
:1096D00093F8E02FD3F8E83F08BFC3F30313062A3B
:1096E0004DD1033B042B03D86A4AD35C002B46D0F0
:1096F0004FF08052684BD2F80414C3F82015D2F80A
:109700000814C3F82415D2F80C14C3F82815D2F89D
:109710001014C3F82C15D2F81414C3F83015D2F86D
:109720001814C3F83415D2F81C14C3F84015D2F835
:109730002014C3F84415D2F82414C3F84815D2F8FD
:109740002814C3F84C15D2F82C14C3F85015D2F8CD
:109750003014C3F85415D2F83414C3F86015D2F895
:109760003814C3F86415D2F83C14C3F86815D2F85D
:109770004014C3F86C15D2F84424C3F87025FFF7E1
:1097800025FF48B14FF080534FF08042D3F8583254
:1097900003F04F03C2F8E43EFFF718FF48B14FF063
:1097A0008043D3F80024D20744BF6FF00102C3F80E
:1097B00000244FF08053D3F83021062A0ED1D3F87D
:1097C0003431033B042B02D8344AD35C33B1344ADE
:1097D000D2F83C3743F48063C2F83C372B4AD2F8C6
:1097E000883043F47003C2F88830BFF34F8FBFF363
:1097F0006F8F4FF08053D3F83021062A0FD1D3F862
:109800003431033B042B02D8264AD35C3BB14FF0E2
:109810001023D3F808224FF08043C3F858254FF0A7
:109820001023D3F80022002A03DBD3F80432002BE4
:1098300022DA1D4901234FF01020C1F80435152408
:10984000FFF7E6FEC0F80042FFF7E2FEC0F8044270
:10985000FFF7DEFE0023C1F80435FFF7D9FEBFF3A2
:109860004F8F0A49114BCA6802F4E0621343CB6080
:10987000BFF34F8F00BFFDE70D4B0E4A1A6010BDBE
:109880000030014000C007400DF0ADBA00ED00E02F
:1098900000500040D019030000C00040D51903005B
:1098A00000100040DA19030000E001400400FA054E
:1098B000A82200200090D003054A4FF0A043105C7E
:1098C000D3F8043523FA00F0C04300F001007047DC
:1098D000E8190300044B1A5C012393404FF0A042A7
:1098E000C2F80C35704700BFE8190300044B1A5C3E
:1098F000012393404FF0A042C2F80835704700BFE3
:10990000E819030008B50020FFF7F0FF0120FFF77A
:10991000EDFF0220FFF7EAFFBDE808400320FFF754
:10992000E5BF08B50020FFF7D5FF0120FFF7D2FF04
:109930000220FFF7CFFFBDE808400320FFF7CABFB2
:10994000074A4FF0A041105CD1F804350122824053
:1099500022EA03001340C1F80805C1F80C3570472E
:10996000E8190300054A4FF0A043105CD3F8103506
:1099700023FA00F0C04300F001007047E41903002F
:109980000D2809D00E2809D00F2809D010280CBFA7
:1099900003204FF0FF3070470020704701207047D0
:1099A00002207047014B185C704700BFE4190300A8
:1099B000C20708B501460CD54FF0A0430322C3F8F7
:1099C0004427C3F84827C3F84C27C3F85027FFF7AC
:1099D00099FF8B070AD54FF0A0430C22C3F8342718
:1099E000C3F83827C3F83C27C3F8402708BD000058
:1099F00038B5074C051E04F1080318BF1C46236840
:109A00002BB11A6822605B6828469847F7E738BD93
:109A10004C2C002020B9054B01225A70FFF7E8BFFB
:109A2000012802D1014A9070F8E77047442C0020C9
:109A300020B9034B01225A70FFF7DABF704700BF0D
:109A4000442C002038B50E4C2378B3B90D48636020
:109A5000A3602361E36000F0E7F8054606F08AFFA3
:109A600008B900F0EDF801232370074BD3F8003458
:109A70000BB10123A370284638BD8525F5E700BF4B
:109A8000442C0020159A02000000014037B50D4C0F
:109A900000230DF107008DF80730FDF72FFDE36877
:109AA000013BE360E36833B9074BD3F8005415B9C1
:109AB00000F0D8F8A5709DF80700FDF743FD03B04E
:109AC00030BD00BF442C002000000140012813B528
:109AD0000CD0032820D038B9134B0122C3F88020C2
:109AE000BFF34F8FBFF36F8F02B010BD0F4C002339
:109AF0000DF107008DF80730FDF700FD23780BB955
:109B0000FFF7A0FFE3689DF807000133E36001233E
:109B1000A370FDF717FDE7E700F092F802B0BDE88B
:109B20001040FFF7B3BF00BF00E100E0442C00206D
:109B30001FB503788DF800304368019383688DF872
:109B40000830C368054A0393054B684653F8213033
:109B500052F82110984705B05DF804FB582C0020FE
:109B60005C2C00201FB503788DF80030436801930A
:109B700083688DF80830C368054A0393054B68462F
:109B800053F8213052F82110984705B05DF804FBD6
:109B9000582C00205C2C0020F0B5194B90F800C028
:109BA00091F81DE043F82C20164B16460A6943F83D
:109BB0002C20154B03F80CE00C4607460FCC89B05F
:109BC0006D460FC594E80F0085E80F00CDF810C072
:109BD000BEF1000F09D0002E0C4A694608BF32467C
:109BE000381D00F083FD09B0F0BD002E084A69461B
:109BF00008BF324607F10C0000F05AFBF3E700BF44
:109C00005C2C0020582C0020602C0020319B02008E
:109C1000659B020000F18040002382B0036003686E
:109C20000193019B02B07047044A137923B90121C3
:109C3000106091801846704785207047642C002082
:109C4000074B1A68D20704D4C02283F800230122EC
:109C50001A604FF080430122C3F81825704700BFF7
:109C600000E100E04FF0804208B50223C2F808335B
:109C70004FF48270FFF7CEFF0123D360D2F818347F
:109C8000DB03FBD408BD00004FF0804110B5D1F8D4
:109C9000003163B14FF48070FFF7BCFF0D4B587972
:109CA0000122C1F8082310B95A711B6898474FF078
:109CB0008042D2F8043163B14FF48270FFF7AAFFFB
:109CC0000223C2F80833034BBDE810401B68012093
:109CD000184710BD642C002000F1804000F5C04002
:109CE000002382B0036003680193019B02B07047B8
:109CF000800000F1A040D0F8002722F44032C0F8E4
:109D00000027D0F8003743EA0141C0F80017704738
:109D1000054B4FF0FF32072843F8202084BFC018BE
:109D200080F84820704700BF6C2C002010B51849FF
:109D300091F8583053BB4FF0FF3222FA03F0C007BE
:109D400048BFC81803F1010348BF80F83020202B1A
:109D5000F3D10024E0B20134FFF7DAFF0C2CF9D183
:109D60000C4B0022C0204A6583F80603402018608F
:109D70004FF4BE70FFF7B0FF074B4FF00040C3F841
:109D80000403012381F85830104610BD0820FCE779
:109D90006C2C002000E100E000600040034B93F8D1
:109DA0005800003818BF0120704700BF6C2C0020FD
:109DB000F0B5394E331893F93030002B69DA8D78CD
:109DC000C5F34005002D0BBF082300230C240824F5
:109DD000A34201D10420F0BD56F82370013743D1CE
:109DE00037185CB246F8232087F8304015B9F218CE
:109DF00082F848008A78550716D4D70736D58200EE
:109E000002F1A042D2F8005725F00205C2F800572F
:109E1000224FC50800F0070C012202FA0CF217F8D5
:109E200005C042EA0C027A558A780D7812F00202D7
:109E300025D09B0003F1804303F5C0430002D3F813
:109E4000102522F4473222F44072C3F810252D0465
:109E5000D3F8102500F4F85005F44035284310439A
:109E6000C3F810050020B6E70133B1E74D7800F5DF
:109E7000E0724FF0A047AD0047F82250C8E7083C19
:109E800046FA84F494F8500040EA851584F850505E
:109E9000E8E708209FE700BF6C2C0020C02C0020C2
:109EA00038B5204C251895F93020072A18DD083AD6
:109EB00044FA82F494F850309B09032B0BD14FF0F5
:109EC000A043D3F81015C14001F001010231BDE8F3
:109ED0003840FFF70DBF012B0CBF02210321F6E72D
:109EE000D3B2072B1DD8930003F1804303F5C04381
:109EF000D3F8100540F00100C3F8100502F140004E
:109F000040B2800080B2FFF7E7FE51B195F93030E2
:109F100054F823302BB1012303FA02F2024BC3F8A9
:109F2000042338BD6C2C0020006000404FF0A0439B
:109F3000D3F8103523FA00F000F00100704700005C
:109F40002DE9F74F00244E4D01944FF4807201210A
:109F500002F1804303F5C04390B21B68012B06D188
:109F6000D5F804330B4202D0FFF7B6FE0C4304329F
:109F7000B2F5907F4FEA4101EAD1414BD3F87C31F1
:109F8000012B0CD14FF4BE70FFF7A6FE4FF0A0439B
:109F900044F00044D3F820250192C3F82025E3B211
:109FA000D3B1384F00250126344210D0AB0003F165
:109FB000804303F5C043D3F81005D3F8101557F8C4
:109FC000253023B1C1F30141C0F304209847013586
:109FD000082D4FEA4606E7D1002C48DA294D4FF00C
:109FE000A048294E4FF00009012716F9013B5A1CE1
:109FF00031D0C3F3C20208326A44DCB212F8042C36
:10A0000003F03F0A03F0070307FA03F31A4222D0D2
:10A010000AF5E073504658F82330C3F3014BBBF107
:10A02000020F0CBF03210221FFF762FE07FA0AF3B9
:10A03000C8F8203505EB0A0393F9303055F8233082
:10A040004BB1A109032904D0BBF1020F12D10129A0
:10A0500001D15046984709F10109B9F1040FC4D163
:10A06000D8F820350193C8F82035002BB9D103B0BA
:10A07000BDE8F08FBBF1030FEDD10229E8E700BF87
:10A08000006000406C2C0020BC2C0020014B1B68A1
:10A09000184700BFC82C00200E4B984237B50C461D
:10A0A00002D0002003B030BD00230DF107008DF871
:10A0B0000730FDF723FA084B1D7915B901221C6002
:10A0C0001A719DF80700FDF73DFA002DE9D0112027
:10A0D000E8E700BF00200040C82C0020034B984256
:10A0E00001BF034B00221A601A7170470020004024
:10A0F000C82C00200023435082B043580193019B99
:10A1000002B070470A4610B54FF48E71FFF7F2FFA8
:10A11000136A9168C95C136A01331362C0F81C1595
:10A1200010BD8B690A4610B54FF4847123B9FFF74F
:10A13000E1FFD0F8183510BDFFF7DCFF536AD16896
:10A14000D0F81805C854536A01335362F3E700008E
:10A150001FB501238DF80030044BCDE90110D3E980
:10A1600000126846904705B05DF804FBD02C002033
:10A1700030B54D4DD5F804339A0585B051D5D5F895
:10A180002431002B4DD04FF492712846FFF7B2FFD7
:10A190004FF40173C5F80833444B93F829200AB9EA
:10A1A00001226A60404902228DF80020D1F8802403
:10A1B000C1F8802403929A690292DA68019200221F
:10A1C000C3E906226846D3E9001290473648D0F822
:10A1D0001C315BB1354A5169136A99424DD992F8E5
:10A1E0002830002B49D11146FFF78CFF2E48D0F8BC
:10A1F0004431002B56D04FF4A271FFF77BFF2B4B5D
:10A2000093F829200AB1012202609A69002A49D0F4
:10A21000586AD96800229A6105B0BDE83040FFF75E
:10A2200097BFD5F804335B07D0D5D5F80831002B9C
:10A23000CCD01E4C1C482146FFF773FF636AA2690D
:10A240009A42C3D1E369E1684BB1A3612369E3603A
:10A250000023606AE3616362FFF77AFFB6E794F870
:10A2600029300BB901236B600F4B4FF40172C3F817
:10A2700008230023606AA361EEE70B484FF48E7158
:10A28000FFF738FF5369002BB0D0516902910023CA
:10A2900091688DF80030019153616846D2E900134E
:10A2A0009847A3E705B030BD00200040D02C002027
:10A2B0002DE9F843534D90F804802C2303FB0853F9
:10A2C000064693F82A300C469146002B40F09680C3
:10A2D0004D490068FFF7E0FE0746002840F09080F7
:10A2E00022683068511C0BD04FF0A04101239340ED
:10A2F000C1F8083502F5E0734FF0030C41F823C0B4
:10A3000061684B1C1FBF01F5E0734FF0A04C4FF08C
:10A31000000E4CF823E0A369C0F8243594F814C06B
:10A32000637DBCF1010F4CEA0303C0F86C35C0F843
:10A330001415C0F80C251DD1A268531C1FBF02F5CF
:10A34000E0734FF0A0414FF0000C41F823C0E368E8
:10A35000591C0BD04FF0A04C01219940CCF80815A6
:10A3600003F5E0714FF0030E4CF821E0C0F808351A
:10A37000C0F810252C2202FB08F2AB18C3F8049099
:10A380002369AB50B9F1000F20D04FF48E71247FB8
:10A39000FFF7B0FE4FF4A2713068FFF7ABFE3268F2
:10A3A0001A4BC2F80433130B42F307326101002A3F
:10A3B000C9B21EDB1648841884F800130121520923
:10A3C00003F01F0301FA03F340F82230336804223C
:10A3D000C3F800252C2303FB08530022C3E90622FF
:10A3E00083F829205A61012283F82A203846BDE8E3
:10A3F000F883084A03F00F03D154E7E70827F5E78D
:10A400001127F3E7D02C002071A102008000020088
:10A4100000E100E014ED00E0F8B503680579304C88
:10A420000022C3F800252C2202FB05425268A2B18B
:10A430002C4AC3F808231A0B43F30733002B0CDB19
:10A4400002F01F015B0901228A402033264941F8AE
:10A450002320BFF34F8FBFF36F8F0068D0F80C65D8
:10A46000D0F81415D0F80835D0F810254FF0FF3784
:10A47000BE42C0F8147518BF06F5E076C0F80C753A
:10A48000C0F80875C0F810751EBF4FF0A0474FF018
:10A49000020C47F826C04E1C1FBF4FF0A04601F526
:10A4A000E071022746F82170511C1FBF4FF0A041F8
:10A4B00002F5E072022641F822605A1C1FBF03F524
:10A4C000E0734FF0A042022142F82310FFF706FE8E
:10A4D0002C2303FB0544002384F82A306360F8BD75
:10A4E000D02C00208402020000E100E00279044B3D
:10A4F0002C2101FB02335869003818BF0120704736
:10A50000D02C00202DE9F84F064690F804808946AB
:10A510009246FFF7EBFF044600283CD1204F2C2544
:10A5200008FB057B4FF48E71CBF814A0CBF8089094
:10A53000CBF820008BF828003068FFF7DBFD30688F
:10A54000012383605946FFF7DDFDDBF804305D46EB
:10A550001BBB3068DBF814402B6A9C4211D833686F
:10A56000D3F81C21002AFBD00122DA6000202C2322
:10A5700003FB087700237B61BDE8F88F95F828304E
:10A580003BB9D0F81C31002BF8D05946FFF7BAFD83
:10A59000E2E70F20EBE71120EEE72046ECE700BFF3
:10A5A000D02C00200023435082B043580193019BDC
:10A5B00002B070471FB501238DF80030044BCDE980
:10A5C0000110D3E900126846904705B05DF804FB1E
:10A5D000FC2C00207FB5434AD2F82461002E60D0C5
:10A5E00010464FF49271FFF7DDFF02238DF8003023
:10A5F000D2F88034C2F880340393D2F83C35029309
:10A60000394BDA6801920022C3E906226846D3E991
:10A61000001290473348D0F8443173B14FF4A2711F
:10A62000FFF7C0FF304B9A693AB10022C3E9062216
:10A63000D968D0F83C05FFF7BDFF2A48D0F8203193
:10A64000ABB14FF49071FFF7ADFF0123C360264B10
:10A650005A6962B1D0F84C150291002299688DF8C0
:10A66000002001915A616846D3E9001290471D48C5
:10A67000D0F858319BB14FF4AC71FFF793FF1A4BF0
:10A680005A6962B1D0F84C150291002299688DF890
:10A69000002001915A616846D3E90012904704B046
:10A6A00070BDD2F81031002BB4D04FF48871104631
:10A6B000FFF778FF0C4BD2F83C0599698842A9D185
:10A6C000DC69D96864B1D2F8005225F02005C2F8DF
:10A6D00000521A699C61DA60DE61FFF76BFF99E74F
:10A6E0009C61FAE700200040FC2C00202DE9F84393
:10A6F0005A4E90F80480242303FB0863044693F821
:10A7000020300D469146002B40F0A380544900684C
:10A71000FFF7C2FC0746002840F09D802A682068A9
:10A72000511C0BD04FF0A04101239340C1F80835D4
:10A7300002F5E0734FF0030C41F823C069684B1C2D
:10A740001FBF01F5E0734FF0A04C4FF0000E4CF826
:10A7500023E0AB69C0F8243595F814C06B7DBCF1DB
:10A76000010F4CEA0303C0F86C35C0F80C25C0F8A3
:10A7700014151DD1AA68531C1FBF02F5E0734FF0DA
:10A78000A0414FF0000C41F823C0EB68591C0BD0DE
:10A790004FF0A04C01219940CCF8081503F5E07169
:10A7A0004FF0030E4CF821E0C0F80835C0F8102532
:10A7B000242202FB08F2B318C3F804902B69B350AB
:10A7C000B9F1000F2FD04FF488712A7FFFF7EAFE0E
:10A7D00020684FF49071FFF7E5FE20684FF4927106
:10A7E000FFF7E0FE20684FF4A271FFF7DBFE4FF4A5
:10A7F000AC712068FFF7D6FE23681A49C3F804132A
:10A80000190B43F307335201002BD2B21CDB16485D
:10A81000C51885F8002301225B0901F01F0102FA27
:10A8200001F140F8231023680822C3F800252423EF
:10A8300003FB08660023C6E906337361012386F82B
:10A8400020303846BDE8F883084B01F00F015A5418
:10A85000E9E70827F5E71127F3E700BFFC2C002004
:10A86000D5A502001003420000E100E014ED00E075
:10A87000F8B5444C0579242303FB054302465B6885
:10A880000068ABB1404BC0F8083340F30733002BEE
:10A890004FEA10310CDB01F01F065B090121B140CA
:10A8A00020333A4E46F82310BFF34F8FBFF36F8F1C
:10A8B000D0F8003223F02003C0F80032242303FB39
:10A8C00005439B692BB14FF4A271FFF76BFE012387
:10A8D00043604FF4AC71FFF765FE0123C36024238E
:10A8E00003FB0543D0F858110029FBD0996919B131
:10A8F000D0F844110029F5D00023C0F800351368C2
:10A90000D3F80C75D3F81465D3F80825D3F81015CF
:10A910004FF0FF3C6745C3F80CC518BF07F5E0775B
:10A92000C3F814C5C3F808C5C3F810C51EBF4FF05F
:10A93000A0434FF0020C43F827C0771C1FBF4FF015
:10A94000A04306F5E076022743F826704E1C1FBF91
:10A9500001F5E0714FF0A043022643F82160531C3B
:10A960001FBF4FF0A04302F5E072022143F822100E
:10A97000FFF7B4FB242303FB0544002384F82030B5
:10A980006360F8BDFC2C00201003420000E100E0F1
:10A990000279044B242101FB02335869003818BFA7
:10A9A00001207047FC2C002001F06043B3F1005FF0
:10A9B0002DE9F0470646884692463BD190F8049030
:10A9C000FFF7E6FF0446002836D11D4F30682425E6
:10A9D00005FB09754FF49071C5F814A0C5F80880FF
:10A9E000FFF7E0FD4FF4AC713068FFF7DBFD336833
:10A9F0006A69A968C3F84415C3F8482501229A601A
:10AA00006A68DAB9D3F82021D3F858011AB90028B6
:10AA1000F8D00F2007E00028FBD10122DA60D3F83C
:10AA20005821002AFBD0242303FB097700237B61F4
:10AA3000BDE8F0871020FBE71120F9E72046F7E793
:10AA4000FC2C00200023435082B043580193019B0B
:10AA500002B070470B7B032B2AD8DFE803F02226D5
:10AA60001A028B685A0304D5D0F84C350A699A4209
:10AA700007D18B685B031BD4D0F84C354A699A42E6
:10AA800016D000230622C0F80035C0F8002518466D
:10AA90007047D0F84C350A699A42F2D1D0F83C356B
:10AAA000ECE7D0F84C350A69E9E7D0F83C35FAE72D
:10AAB00001207047F0B5594D594CD5F8243187B075
:10AAC000FBB14FF492712846FFF7BCFFD5F8043173
:10AAD000BBB9A368C5F808330223A360A368C5F80F
:10AAE0000433D5F860311BB1D5F800329F0503D48B
:10AAF0004A4B01221A625A61012384F82E3007B0B2
:10AB0000F0BDD5F80431002B50D044484FF4827189
:10AB1000FFF798FF236A5E0609D494F82E3033B904
:10AB20003F49FFF797FF80F0010084F82E00236A69
:10AB30005D0720D43B4E0FCE01AD0FC533683748BB
:10AB40002B604FF4B071FFF77DFF4FF4AE71FFF74C
:10AB500079FF94F8303013B194F82E305BB12F4B5D
:10AB60000022C3F80022A2602F4AC3F808232F4B0B
:10AB70000822C3F88021294AD2F8C434C2F8C43468
:10AB800098073DD501238DF8003094F830300BB98B
:10AB900084F82F30236A5B0703D594F82E30002BFE
:10ABA000ADD0D4E9003168469847A8E71B484FF478
:10ABB000A471FFF747FF237B83B91A4F0FCF01AE74
:10ABC0000FC63B68336094F83030002BD3D1C5F802
:10ABD0000032A360144BC5F80833C8E74FF4007384
:10ABE000C5F8003240F20223A36003F1CE73C5F82A
:10ABF0000833A368C5F804330123AB602B627EE7FA
:10AC0000590701D50223BEE7DA0701D50323BAE7C6
:10AC100094F82E30002BB6D00423B4E70030004067
:10AC2000202D00202C2D002002029C0100E100E0DC
:10AC30002DE9F84F0679304D4FF0340A0AFB06FA39
:10AC400005EB0A079B4697F82D3080460C46914647
:10AC5000002B4DD129490068FFF71EFA002849D181
:10AC60002168637B87F8323001F5E0724FF0A04332
:10AC7000B860C7F804B087F82F0087F8300040F2BA
:10AC80000C6745F80A9043F82270626802F5E07C90
:10AC900043F82C70D8F80030C3F80815C3F80C2519
:10ACA000A268C3F82425B9F1000F14D0227B43F326
:10ACB000073152010029C3F30733D2B213DB104C22
:10ACC000671887F800230122490903F01F0302FADD
:10ACD00003F344F82130342303FB0655012385F8A0
:10ACE0002D30BDE8F88F074903F00F03CA54F2E78F
:10ACF0000820F6E71120F4E7202D0020B5AA020075
:10AD000000E100E014ED00E0036802790621C3F8D9
:10AD10000015044B342101FB0233022283F82D205D
:10AD2000704700BF202D00202DE9F843DFF8C882CE
:10AD300090F804900468342606FB0986002386F800
:10AD40002E30CB6803F06043B3F1005F0D46174629
:10AD500003D010263046BDE8F883A64BC4F808336C
:10AD600096F82F3023B1B368C4F804331126F1E705
:10AD700012F0140F0CBF0123002386F82F308E46EB
:10AD8000BEE80F0006F10C0CACE80F00DEF8003056
:10AD9000CCF80030C7F3001386F8303037626B7898
:10ADA000C4F8883520464FF48271FFF74BFE4FF40C
:10ADB0009271FFF747FE4FF4B071FFF743FE4FF477
:10ADC000A471FFF73FFE17F0010318BF0123C4F879
:10ADD000503517F0020318BF0123C4F840352B7813
:10ADE000032B00F2B580DFE803F084A069022B6931
:10ADF00003F06043B3F1005FABD14FF48073C4F84C
:10AE00000032EA686B68C4F844254FF4A871C4F8AE
:10AE10004835FFF717FE01232362A360D4F85031B1
:10AE2000002BFBD04FF4A8712046FFF70BFEAB6858
:10AE30002A69C4F84425C4F84835342303FB098340
:10AE40004FF480229A60082300263A0704D42A7817
:10AE5000032A1CBF0122E250342303FB09F308EB51
:10AE6000030258F80330002B75D10125D4F848218E
:10AE7000D4F80431002B40F08980003A18BF012239
:10AE8000D4F82431002B00F088804FF492712046D2
:10AE9000FFF7D8FDD4F86011D4F8003209B1980555
:10AEA00004D4256265610029E0D00022D90574D55B
:10AEB0004FF4A4712046FFF7C5FDD7E76B68EA6839
:10AEC000C4F84425C4F848352B6903F06042B2F158
:10AED000005F7FF43EAFAA68C4F834354FF4845362
:10AEE000C4F83825C4F80032342303FB0983022256
:10AEF00012E06B68EA68C4F8442517F0200FC4F824
:10AF000048354FF034030BD04FF48072C4F8002260
:10AF100003FB09834FF480229A600123236292E7A6
:10AF20004FF40072C4F80022DFE76B68EA68C4F8E7
:10AF30003425C4F838354FF48053C4F80032342334
:10AF400003FB098302229A600123236200237BE72B
:10AF50000823072679E77B0744BF002393607D061B
:10AF600006D4342303FB09839A6842F002029A60F4
:10AF7000342303FB0988D8F8083043F40073C8F879
:10AF80000830D8F80830C4F80433E3E64FF482718F
:10AF90002046FFF757FD012272E7002A3FF466AF13
:10AFA0003421D4F8C434C4F8C43401FB098200202D
:10AFB00082F82F0093B113F0010F14BF4FF4024633
:10AFC000032648F2012213F0020F18BF164613F0B1
:10AFD000040F48F2022318BF1E46BBE67B063FF56E
:10AFE000B9AE09FB01812046FFF734FD002808BFF8
:10AFF0000326AFE602029C01202D002010B586B08A
:10B000000024CDE902349DF820308DF80510A342CC
:10B01000CDE9042401A914BF202222468DF8044062
:10B02000FFF782FE06B010BD10B586B00124029372
:10B030000023CDE903328DF805101A4601A98DF8D9
:10B0400004400593FFF770FE06B010BD1FB50378EE
:10B050008DF800308388ADF8043083688DF80630B1
:10B06000C3688DF80730036902934369054A039367
:10B07000054B684653F8213052F82110984705B027
:10B080005DF804FB542D00205C2D0020024B4FF492
:10B09000807043F001031847201A03002DE9F047A0
:10B0A000154690F80090324A42F82950314A42F849
:10B0B00029304B7B07460C466BB308684968820011
:10B0C0008B0002F1A04203F1A04340F20C66C2F8EB
:10B0D00000674FF0010AC3F800674FF0A0460AFA74
:10B0E00000F00AFA01F1C6F80805C6F8081540F2A2
:10B0F0000D61C2F80017C3F80017FFF7C7FF4FF044
:10B100000008D6F81025636822FA03F3DB070DD593
:10B11000B8F1000F1DD1002D174A4B4608BF2A4633
:10B120002146381DBDE8F047FFF782BD23680AFAC3
:10B1300003F3C6F80C35FFF7A9FF23680AFA03F3F7
:10B14000C6F8083508F10108FFF7A0FFB8F1090FAC
:10B15000D7D1636801264FF0A04806FA03F3C8F878
:10B160000C35FFF793FF63689E40C8F80865D2E787
:10B170005C2D0020542D00204DB002004FF04023E4
:10B1800082B0D3F81821EAB10022C3F81821D3F80D
:10B1900018310193019B0C4BD97FFF2907D0987F71
:10B1A00001228A404FF0A04148B1C1F80C2500228D
:10B1B0005A771A72D3E90021044802B01047C1F847
:10B1C0000825F4E702B07047642D00206C2D0020A4
:10B1D0002DE9F74F90F80480644E01924FF0240956
:10B1E00009FB08F906EB090B9A469BF81C30074649
:10B1F0000C46002B40F0B58005685D492846FEF7F7
:10B200004BFF002840F0AF80019B46F80930CBF897
:10B2100004A094F800E094F80CC04FF0A042012381
:10B2200003FA0EF3BCF1010F94BFC2F80C35C2F85B
:10B2300008350EF5E073012142F823106378FF2BE7
:10B240001FBF9940C2F80C1503F5E0714FF00309D8
:10B2500018BF42F82190A27808BF4FF0FF33FF2AB1
:10B260001FBF02F5E0714FF0A04A4FF0040B4AF8FF
:10B2700021B04FF0240101FB086618BF914686F803
:10B280002020E2783949F27708BF4FF0FF39FF2AD2
:10B2900017D094F804A04FF0010B0BFA02FB4FF00B
:10B2A000A046BAF1000F4ED0C6F80CB502F5E07218
:10B2B0004FF0030B46F822B0242202FB081282F85A
:10B2C0001EA0C5F808E5C5F80C35A368C5F81095AB
:10B2D000C5F82435637B003B18BF0123BCF1020F86
:10B2E00034D0BCF1030F34D0BCF1010F01D143F0D5
:10B2F0000203C5F85435A379C5F8C0350723C5F84E
:10B300000035019BABB13B68627943F307355201CD
:10B31000002DC3F30733D2B21EDB164C661986F834
:10B32000002301226D0903F01F0302FA03F344F81E
:10B330002530242303FB081100234B7701230B77CF
:10B3400003B0BDE8F08FC6F808B5AFE743F00403DB
:10B35000CFE743F00603CCE7074C03F00F03E254BA
:10B36000E7E70820ECE71120EAE700BF642D0020A2
:10B370007DB1020000E100E014ED00E02DE9F341B1
:10B380000779474E24237B431446F2180D46517F1C
:10B390008646002940F08180F35823B114F0140F41
:10B3A00004BF0123537795E80F004FF0240C0CFBEA
:10B3B000076C0CF10C0888E80F009CF81F20FF2A8E
:10B3C00008D09CF81E10012393404FF0A042C1B159
:10B3D000C2F80835296821B101F06043B3F1005F7C
:10B3E00006D1AA6882B102F06043B3F1005F0BD0CE
:10B3F000242303FB076600237377102002B0BDE807
:10B40000F081C2F80C35E5E7DEF800306868C3F873
:10B410004415C3F84805E968C3F834250022C3F889
:10B420003815C3F81821D3F818210192019A14F0A5
:10B43000010218BF0122C3F8502514F0020218BF00
:10B440000122C3F8402522075CBF01221A61242291
:10B450007A43B258B2B9D3F81821002AFBD024237A
:10B4600003FB0766F27FFF2A07D0B07F01239340DA
:10B470004FF0A04218B1C2F80C350020BEE7C2F868
:10B480000835BBE714F004004FF0400202D0C3F8C7
:10B490000823F2E7C3F80423B0E71120AEE700BFAA
:10B4A000642D00207FB503788DF804304368029343
:10B4B00083688DF80C30C36804930369064A8DF8DD
:10B4C0001430064B01A853F8213052F82110984748
:10B4D00007B05DF804FB00BF882D0020942D0020EC
:10B4E000F0B50546174615F804CB124A42F82C7001
:10B4F000114A42F82C30114B0C460FCB85B06E46EA
:10B5000086E80F002368009323798DF8053063796E
:10B510008DF80630A3680293002FA389084AADF87E
:10B520000C3008BF3A46634631462846FFF750FEC6
:10B5300005B0F0BD942D0020882D00202C1A0300AA
:10B54000A5B402000220FEF7FBB900002DE9F04788
:10B5500080460D46FEF714FA0328044610D8012D44
:10B5600010D0022D30D05DB91A48FBF7BDFE1A4B42
:10B5700004EB440213449D78184B1B5DAB4219D079
:10B58000BDE8F087144E00EB4003F218F55C5378E9
:10B59000470053B1DFF84C900E484A464FF48041C3
:10B5A000FBF774FE08B989F8008027443E440B4B32
:10B5B000B2781A55002DE3D0094B1B68002BDFD061
:10B5C0002846BDE8F047184700EB40040248044411
:10B5D0006578EFE7D0220020A22D0020BD2D0020AD
:10B5E000B82D0020A02D002000780221FFF7AEBF6B
:10B5F00008B5094B1B7853B10020FEF777F90120FD
:10B60000FEF774F9BDE808400320FEF76FB9BDE806
:10B610000840FEF777B900BFA12D0020F8B57A4C9D
:10B62000237805461BB100232370FFF7E1FF172D98
:10B6300000F28780DFE805F00C1717425364757F2E
:10B64000878C878C949999999999C3C8D0D8E3E34A
:10B65000FFF7CEFF6D48FBF747FE6D4B0022044617
:10B660001A702046F8BD0020FEF726F9F0B1002040
:10B67000FEF73CF9022D0CBF4FF4E1644FF47A64FD
:10B68000634B1D7000254FF400464FF47A70294635
:10B690004FF4FA620023E4FB060105F0C5FA2A46DE
:10B6A0000146BDE8F8405948FBF7F0BDFEF712F936
:10B6B000022D0CBFC8244FF4C874E1E70020FEF748
:10B6C000FBF840B10020FEF711F94FF44874504BDD
:10B6D00003221A70D6E7FEF7FDF8C824F7E700202A
:10B6E000FEF7EAF838B10020FEF700F94FF47A646B
:10B6F000474B0422EDE7FEF7EDF84FF4C874F7E787
:10B700000020FEF7D9F848B10020FEF7EFF8404BD3
:10B7100005221A7040F6CD410022C2E7FEF7DAF8A2
:10B72000F5E70020FEF70CF9394B06221A700022CB
:10B7300040F26661B5E70020FEF7CCF8344B0722F3
:10B740001A7000248DE701202070FEF7F9F8EEE76B
:10B7500001202070FEF7F4F800224FF40051A0E71A
:10B76000FEF7DFF82A4B0C22EAE72A482A4EFBF7BD
:10B77000BBFDD5F1110504461CD0D8B9012D13D05D
:10B78000C820454321464FF400474FF47A704FF4E8
:10B79000FA620023C5FB070105F046FA224601467E
:10B7A0001C48FBF773FD04460220FEF793F80123C3
:10B7B000337056E70220FEF799F80023F8E7FFF709
:10B7C00017FF134B1222BBE7FFF712FF0020FEF713
:10B7D00081F80F4B1322B3E7FFF70AFF0120FEF7B2
:10B7E00079F80B4B1422ABE7FFF702FF0020FEF7BE
:10B7F00071F80120FEF76EF8054B1522A0E7FEF761
:10B8000090F8034B1D709CE7B42D0020F02200201F
:10B81000BC2D0020B0220020A12D0020044B1B686D
:10B82000DB0703D5034B1878FFF7F8BE704700BF5E
:10B83000B02D0020BC2D002010B5002914BF03241A
:10B840000024FEF7AFF8800000F1A040D0F80027F8
:10B8500022F44032C0F80027D0F8003743EA04430E
:10B86000C0F80037002010BD032801D8FEF77AB8D1
:10B8700000207047044B1B6813F0010301D0FFF751
:10B88000CDBE1846704700BFB02D002038B51C4B08
:10B8900018601C4B10F00204054619601AD01A4BB0
:10B8A0001A480E221A700F22DA7010229A71112291
:10B8B0005A72042140F23332FBF756FB044648B972
:10B8C000FBF7AAFB044628B90146114A1148FBF7C9
:10B8D000CBFC0446EB0711D50120FEF769F86CB9E3
:10B8E00021460D4A0D48FBF7BFFC044630B9BDE8C0
:10B8F00038400B4A0B480121FBF7B6BC204638BD47
:10B90000B02D0020B82D0020A22D00203C1A0300ED
:10B91000E9B50200601A03001DB80200641A0300B2
:10B9200045B502005C1A0300032811D8012A0AD188
:10B9300001290FD100F10E02D2B20D4B00EB4000F5
:10B940001A54002070470129F7D0022904D049B1C8
:10B95000072070470022F8E7054B00EB4000184431
:10B960004270EEE7024B00EB400018448270E8E7BB
:10B97000A22D0020032802D80121FFF75DBF062079
:10B98000704708B5012202210020FFF7CDFF08B162
:10B99000072810D1072202210120FFF7C5FF08B1B7
:10B9A000072808D100210A220846FFF7BDFF10B181
:10B9B000072808BF002008BD0388102B10B502D04F
:10B9C000112B1ED010BD1A4C2168B1B901220846B6
:10B9D000FFF7AAFF08B1072824D10722022101207E
:10B9E000FFF7A2FF08B107281CD104220221002082
:10B9F000FFF79AFF08B1072814D1236801332360A9
:10BA0000E0E70B4A1368013B1360002BDAD1FFF724
:10BA1000B8FF0028D6D0074B1B68002BD2D0BDE85A
:10BA200010401847034B1B68002BE6D09847E4E70B
:10BA3000C82D0020C42D002008B50020FFF79AFF74
:10BA400008B1062806D10120FFF794FF10B106289F
:10BA500008BF002008BD00000D4B10B518600C4653
:10BA600029B10120FFF700FF40B102232370094BE9
:10BA70001B6853B9BDE81040FFF783BFFFF7F4FE22
:10BA800008B10B23F2E72070F1E7002010BD00BFE2
:10BA9000C42D0020C82D002076DF70477ADF704764
:10BAA0007CDF70478FDF704733DF7047FBF7CABA20
:10BAB0000388212B13B5044639D005D8102B19D093
:10BAC000112B0AD002B010BD3B2B01D0562BF9D15F
:10BAD000A0881321FFF7E0FF22E01C4B1C481D4902
